:100000000C9485060C94A2060C94A2060C94A206ED
:100010000C9490310C94A2060C94A2060C94A206A7
:100020000C94A2060C94A2060C9485150C94591BF2
:100030000C9432280C94A2060C94A2060C94A206EE
:100040000C94A2060C94A2060C94A2060C94A20690
:100050000C94A2060C945E160C94A2060C94A206B4
:100060000C94A2060C94A2060C94A2060C94A20670
:100070000C94A2060C94A2060C94A2060C94A20660
:100080000C94A2060C94A2060C94A2060C94A20650
:100090000C94A2060C94A2060C94A2060C94A20640
:1000A0000C94A2060C94A2060C94A2060501090267
:1000B000A10185020901A1000509190129081500FE
:1000C0002501950875018102050109300931158165
:1000D000257F95027508810609381581257F9501D0
:1000E00075088106050C0A38021581257F95017572
:1000F000088106C0C005010980A101850319012AF4
:10010000B700150126B700950175108100C0050CD8
:100110000901A101850419012AA002150126A002E6
:10012000950175108100C005010906A1018506052C
:100130000719E029E71500250195087501810205D9
:1001400007190029EF1500250195F07501810205B9
:10015000081901290595057501910295017503910D
:1001600001C00660FF0961A1010962150026FF00B8
:100170009520750881020963150026FF00952075FA
:10018000089102C005010906A101050719E029E748
:1001900015002501950875018102950175088101F9
:1001A0000507190029FF150026FF0095067508812F
:1001B000000508190129059505750191029501753C
:1001C000039101C000DA0281FFD9F1DB20A4A62E41
:1001D000AF00A0C0D30000A1C8D30000AED580A856
:1001E0001F408D142000FD377A585A000004E6D6CF
:1001F000B4460200210116000000742FE5A3E004BC
:100200006301615D003D8889C65436C3174FE4E23F
:10021000A55D4D794667385F3551A72F6901E8E440
:1002200001787CF66F3748C92DD35EF5D4FB8DA1DC
:100230000965CD480CC69780784EB8724A615F76E2
:10024000A7F558F3EADEAD8CA36FA00E1D8E339A8E
:100250002140A6EF590A39BC7C83D72627007F4866
:10026000A374C257444CC6D6DB5E654AA02E00E894
:10027000170953044827A2E38008293D9C5367745B
:100280004F0555D9F893D092D91D488F9BB18E5107
:10029000991C48223309137CE53DD1666879CEAFBD
:1002A0000BF9BD7D2DCE856F299FD3556542EC326C
:1002B000C8E7F7BBA54A6C034CCF076EA35E5A573D
:1002C000C61235DC340E1B948BBAFE6BDEEFF6677C
:1002D0001895D83AEA699DA436CB28A8067C15A4BF
:1002E000685A45AF8666BD282048EC3064E7BDB249
:1002F000F3736C07FBA0A2685DB597ECBD4EF546A5
:10030000A41E022836EB6CBDE4643AAC6D35BD33F7
:10031000E43242CBCEDDAD2A44B32B44AA82ABDC1F
:10032000B95B5942F4EDC11E629121C0E21A968474
:10033000125DAE5A95ACF297334B4D2FFC742CB135
:1003400011011B849677292CCFEA0BC2DE92D4F8D8
:10035000757B97AFA5AE5FD4C7791F2B20DEDE3A41
:10036000F10632FD8700000000005D2227A196C63D
:1003700084CE0001FD02E4080000AD0A9747B1C435
:1003800067FB020000000004595A0001010101014D
:10039000010101010202020202020202020303033E
:1003A000030303030304040404040404050505050E
:1003B00005060606060607070707070808080809CE
:1003C0000909090A0A0A0B0B0B0C0C0C0D0D0D0E7A
:1003D0000E0E0F0F0F10101111111212131314140F
:1003E000151516161717181819191A1A1B1B1C1D84
:1003F0001D1E1E1F202021222223242425262627DD
:100400002829292A2B2C2D2D2E2F3031323233340E
:1004100035363738393A3B3C3D3E3F404142434414
:1004200045464748494A4C4D4E4F505153545556F6
:1004300058595A5B5D5E5F616264656668696B6CA2
:100440006D6F7072737577787A7B7D7E808283851D
:1004500087888A8C8E8F91939596989A9C9EA0A25D
:10046000A3A5A7A9ABADAFB1B3B5B7BABCBEC0C267
:10047000C4C6C9CBCDCFD1D4D6D8DBDDDFE2E4E72B
:10048000E9EBEEF0F3F5F8FAFDFF00AF00AE4C61DA
:100490007965723A204F746865720A002020202026
:1004A000202020205E0A00422052204C2041204F74
:1004B000004C617965723A2041646A7573740A0070
:1004C0002020202020205E0A00422052204C204183
:1004D000204F0A004C617965723A204C6F77657243
:1004E0000A00202020205E0A00422052204C204199
:1004F000204F0A004C617965723A20526169736538
:100500000A0020205E0A00422052204C2041204F49
:100510000A004C617965723A20426173650A005E97
:100520000A00422052204C2041204F0A0080818244
:10053000838485868788898A8B8C8D8E8F90919213
:100540009394A0A1A2A3A4A5A6A7A8A9AAABACAD69
:10055000AEAFB0B1B2B3B4C0C1C2C3C4C5C6C7C8E0
:10056000C9CACBCCCDCECFD0D1D2D3D40014001AAF
:100570000008001500170004001600070009000A13
:10058000001D001B0006001900050000000000E02F
:100590000022522C00130012000C0018001C003323
:1005A000000F000E000D000B003800370036001061
:1005B00000110000000000280021522A001E001F28
:1005C000002000210022002B005000510052004F5B
:1005D00000E0003500E300E2000000000000000041
:1005E0000000000000270026002500240023003022
:1005F000002F002E002D000000340031000000000C
:10060000000000000000000000000000001E021FAB
:100610000220022102220229000000000000000046
:10062000003900350200000000000000000000005A
:1006300000000000002702260225022402230230C7
:10064000022F022E022D02000034023102000000AF
:10065000000000000000004C000000280009025BC0
:1006600000030100A0FA09040000010301010009D0
:100670002111010001224000070581030800010942
:1006800004010002030000000921110100012222DF
:10069000000705820320000107050303200001096C
:1006A000040200010300000009211101000122B62B
:1006B0000007058403200001120100020000000869
:1006C000E0F712040002010203011C037600690036
:1006D00061006C003A0066003600340063003200AE
:1006E000620033006300000012036D0069006300C4
:1006F00072006F0064006F00780000001803420071
:100700006F0061007200640073006F00750072007A
:1007100063006500000004030904000000000000FD
:1007200000000000000000000000000000000000C9
:1007300000000000000000000000000000007E0F2C
:1007400000D4FFFFFFC70000007800000000000099
:1007500000002A2B2800000000000000000000001C
:10076000000000000029000000002C1E342021227F
:1007700024342627252E362D3738271E1F202122E8
:10078000232425263333362E37381F040506070861
:10079000090A0B0C0D0E0F10111213141516171851
:1007A000191A1B1C1D2F3130232D3504050607088F
:1007B000090A0B0C0D0E0F10111213141516171831
:1007C000191A1B1C1D2F3130354C07087F080700F4
:1007D0003E5B4F5B3E003E6B4F6B3E001C3E7C3EE3
:1007E0001C00183C7E3C18001C577D571C001C5EEA
:1007F0007F5E1C0000183C180000FFE7C3E7FF0005
:10080000001824180000FFE7DBE7FF0030483A0635
:100810000E00262979292600407F05050700407F24
:1008200005253F005A3CE73C5A007F3E1C1C08004F
:10083000081C1C3E7F0014227F2214005F5F005FB3
:100840005F0006097F017F00006689956A0060608D
:100850006060600094A2FFA2940008047E04080077
:1008600010207E20100008082A1C0800081C2A08F6
:1008700008001E10101010000C1E0C1E0C0030384A
:100880003E383000060E3E0E06000000000000005C
:1008900000005F000000000700070000147F147FC5
:1008A0001400242A7F2A12002313086462003649A8
:1008B00056205000000807030000001C22410000E1
:1008C0000041221C00002A1C7F1C2A0008083E0848
:1008D00008000080703000000808080808000000C8
:1008E000606000002010080402003E5149453E00AF
:1008F00000427F4000007249494946002141494D6C
:1009000033001814127F10002745454539003C4A32
:10091000494931004121110907003649494936004A
:10092000464949291E000000140000000040340020
:100930000000000814224100141414141400004193
:10094000221408000201590906003E415D594E007B
:100950007C1211127C007F49494936003E414141D9
:1009600022007F4141413E007F49494941007F09C2
:10097000090901003E41415173007F0808087F00CA
:1009800000417F4100002040413F01007F081422C8
:1009900041007F40404040007F021C027F007F04F6
:1009A00008107F003E4141413E007F0909090600D1
:1009B0003E4151215E007F091929460026494949D7
:1009C000320003017F0103003F4040403F001F20F1
:1009D00040201F003F4038403F006314081463006C
:1009E0000304780403006159494D4300007F4141ED
:1009F0004100020408102000004141417F00040230
:100A0000010204004040404040000003070800008D
:100A10002054547840007F284444380038444444EB
:100A20002800384444287F003854545418000008E3
:100A30007E09020018A4A49C78007F0804047800B2
:100A400000447D4000002040403D00007F102844CD
:100A5000000000417F4000007C04780478007C089E
:100A600004047800384444443800FC182424180056
:100A700018242418FC007C0804040800485454542A
:100A8000240004043F4424003C4040207C001C20FF
:100A900040201C003C4030403C00442810284400CA
:100AA0004C9090907C004464544C440000083641C3
:100AB000000000007700000000413608000002013D
:100AC000020402003C2623263C0000000000000037
:100AD000404040F0F8F8FF38FFF8F83FF8F8FF38EA
:100AE000FFF8F8F040404000000000000080C0C067
:100AF000C0800000C0C08000000080C0C000C0C036
:100B0000000080C0C00000000000C0C0C0C0C00025
:100B1000C0C0000000000000000000000000000055
:100B200000000000000000000000000000000000C5
:100B300000000000000000000000000000000000B5
:100B4000000000000000000000C0F0F8FC3E1E069F
:100B5000010000007F4141417F007F4141417F0012
:100B60000080C0E07E5B4F5BFEC00000C000DCD7B1
:100B7000DEDEDED7DC00C000000000000000000068
:100B80000000000000000000000000000000000065
:100B9000494949FFFFFFFFE0DFBFBF00BFBFDFE004
:100BA000FFFFFFFF49494900000000001F3F606050
:100BB000E0BF1F007F7F071E381E077F7F007F7FFB
:100BC0000E1F3B716000000000007F7F0C0C0C00CA
:100BD0007E7E007F7E0303007F7E03037E7E030311
:100BE0007F7E000F3E703C063C703E0F00327B491A
:100BF000493F7E007F7E0303001E3F69696F260028
:100C0000000000000000000000030F1F3F3C787050
:100C1000600000007F4141417F007F4141417F00F2
:100C2000307B7F7830202030787F3B0003000F7FBF
:100C30000F0F0F7F0F0003000000000000000000F6
:100C400000000000000000000000000000000000A4
:100C5000010101070F0F7F0F7F0F0F7E0F0F7F0F17
:100C60007F0F0F07010101000000000000000000DD
:100C70000001010000000000000000000000000072
:100C80000000000000000000000000000000000064
:100C90000000000000000000000000000000000054
:100CA0000000000000000000000000000000000044
:100CB0000000000000000000000000000000000034
:100CC0000000000000000000000000000000000024
:100CD0000000000000000000000000000000000014
:100CE0000000000000000000000000000000000004
:100CF00000000000000000000000000000000000F4
:100D00000000000000000000000011241FBECFEF13
:100D1000DAE0DEBFCDBF12E0A0E0B1E0EEEDF7E635
:100D200002C005900D92A637B107D9F727E0A6E7D4
:100D3000B2E001C01D92A430B207E1F70E94592829
:100D40000C94B4330C940000482F2091F804909137
:100D5000BF0457E0291302C080E0089530E0529F9D
:100D6000F001539FF00D1124E054FB4F8181681373
:100D700006C08081481303C085818111EECF2F5FAB
:100D80003F4F2770E7CFE8EDF0E080818E7F8083D2
:100D90001092E2001092DA001092E100A0EEB0E0B2
:100DA0008C9181608C9380818F77808319BCA7EDB3
:100DB000B0E08C918E7F8C9380818F7E80831092A7
:100DC0008F0408952091E4003091E50095E6A90193
:100DD0002091EC00822F817020FF06C08091E800F6
:100DE00080FF06C080E008952091E80022FD1AC02F
:100DF0008091B504882389F0853089F08091EB00DB
:100E000085FD0FC02091E4003091E50042175307A3
:100E1000F9F29150E1F684E0089582E0089583E0CC
:100E2000089581E008958091B70487FF13C08091F1
:100E3000E80082FF06C08091E8008B778093E8008D
:100E400004C08091B5048111F2CF08958091B5045A
:100E50008823D9F38091E80080FFF8CF8091E800E3
:100E60008E77ECCF982F9093E900242F762F50E0C7
:100E7000891731F07091EC002091ED005091F00055
:100E800021FD07C09F5F973071F78093E90081E0F3
:100E900008953091EB003E7F3093EB003091ED00F0
:100EA0003D7F3093ED003091EB0031603093EB00EB
:100EB0007093EC002093ED005093F0002091EE0031
:100EC00027FDE0CF80E00895B0E0A0E0EAE6F7E09B
:100ED0000C94CA32C8EDD0E088818F7E8883E7ED1C
:100EE000F0E080818160808384E082BF81E0809334
:100EF0008F0488818E7F888302EE10E0F8011082D3
:100F00001092DA0081EEC82ED12CF6011082888171
:100F10008F77888388818068888388818F7D8883A4
:100F200019BC1092B5041092B6041092B404109239
:100F3000B30490EEE92EF12CF70180818B7F808342
:100F400088818160888342E060E080E00E9432070F
:100F5000F60180818E7F8083F801808181608083AB
:100F6000808188608083F70180818E7F8083888183
:100F700080618883CDB7DEB7E8E00C94E632FC01EF
:100F80008091BD049091BE0486179707A0F061156B
:100F9000710529F49091E8009E779093E80090E025
:100FA0006115710551F4911108C08091E80082FF2C
:100FB00034C080E00895BC01F2CF8091B50488234D
:100FC000C1F18530C1F18091E80083FD30C080918E
:100FD000E80082FDEACF8091E80080FFE1CF8091B8
:100FE000F3002091F200382F6115710519F02830B7
:100FF000310558F091E02830310509F090E020915A
:10100000E8002E772093E800CBCF81918093F10008
:10101000615071092F5F3F4FE7CF8091B50488235E
:1010200041F0853041F08091E80083FFBECF81E040
:10103000089582E0089583E00895809192040895D0
:1010400087E797E7909301088093000888E19AE08A
:101050000FB6F894A895809360000FBE909360003F
:10106000FFCF2FB7F8946091890470918A04809122
:101070008B0490918C042FBF08952091530122235B
:10108000C9F020918D0427FF15C0E62FE695E6955F
:10109000E695EE31D8F4E80FF92FF11D677021E0E5
:1010A00030E001C0220F6A95EAF72095828128235B
:1010B00022830895FC01329608962191621303C0A1
:1010C000DF0111971C92E817F907B9F70895A3E01B
:1010D000B0E0EDE6F8E00C94D03220918604309137
:1010E000870428173907A1F090938704809386041A
:1010F000E0918404F0918504309751F024E0298335
:101100009B838A830680F781E02DCE0101960995A5
:101110002396E2E00C94EC32A3E0B0E0E2E9F8E0E0
:101120000C94D0322091820430918304281739071F
:10113000A1F09093830480938204E0918404F09161
:101140008504309751F023E029839B838A830680AE
:10115000F781E02DCE01019609952396E2E00C94EB
:10116000EC32FC01680F791F8FEF91E32191822708
:1011700028E030E087FF09C0880F89272150310916
:10118000C9F7E617F70791F70895880FF7CFECEE48
:10119000F3E090E080E063E777E24AE957E222EE8D
:1011A00036E2768365835087478332872187948729
:1011B000838701963D968830910599F70895FA0145
:1011C000811101C0FB0109950895ECE4F3E024814D
:1011D00030E1231B08F420E0248380914B038160DD
:1011E00080934B030895ECE4F3E0248130E1230F76
:1011F00008F42FEF248380914B03816080934B038D
:10120000089590914C03937071F080934D03609317
:101210004E03473908F046E940934F0380914B0352
:10122000822B80934B030895ECE4F3E0438120E1AB
:10123000421B08F440E0818121E0628190E00E943D
:1012400001090895ECE4F3E0438120E1420F08F442
:101250004FEF818121E0628190E00E9401090895B1
:10126000ECE4F3E0628120E1621B08F460E081813C
:1012700021E0438190E00E9401090895ECE4F3E04D
:10128000628120E1620F08F46FEF818121E04381E8
:1012900090E00E9401090895ECE4F3E0818121E0EF
:1012A000438162818850990B0E9401090895ECE402
:1012B000F3E0818190E021E04381628108960E9401
:1012C0000109089580914C03837051F084608093EC
:1012D0004C031092490180914B03862B80934B0362
:1012E000089580914C0386958695815009F481E09C
:1012F00061E00E946209089561E081E00E94620954
:1013000008958093450180914C038370809344013C
:101310000E94BE0E83E0809349010895FF920F93CF
:101320001F93CF93DF93182F062FF42ED0E0C0E049
:101330002F2D402F612FCE010E944C0F2196CC32D1
:10134000D105B1F7CDB7DEB7E5E00C94E932809175
:10135000370380FD16C081FD16C082FD16C0809146
:1013600036038823A1F0883280F428E0829FC001F0
:10137000112468E270E00E940333862F672B39F056
:10138000089582E0089584E0089588E0089581E05A
:1013900008958091370380FD14C081FD14C082FD43
:1013A00016C080913503882381F08E3180F420E5CA
:1013B000829FC00111246EE170E00E940333862FEA
:1013C000089584E1089588E2089588E0089580E50D
:1013D000089580E00895F894E82FE295EF70F0E02A
:1013E00031A1282F2F7081E090E001C0880F2A954D
:1013F000EAF7982F9095932391A392A1892B82A32A
:101400007894089590918D0492FF06C0282F28713A
:101410002830F9F4877F846093FF06C0282F287155
:101420002831F1F4877E846120918E0420FF06C06C
:10143000382F38713830D9F4877F816021FF06C09A
:10144000282F28712831D1F4877E816194FD877E11
:101450000895282F24712430F9F68B7F8860DCCF23
:10146000282F2471243101F78B7E8861DDCF382F3E
:101470003171313019F78E7F8860E0CF282F2171CC
:10148000213121F78E7E8861E1CF82389105B9F153
:10149000B0F48133910509F47DC048F48932910597
:1014A00009F46DC08A32910509F47BC00895853333
:1014B000910509F45FC08933910509F10895833ED0
:1014C0009105D9F138F4803E910529F1823E9105CC
:1014D00079F10895863E9105D9F1873E910509F489
:1014E0003EC0843E910541F520918E0421FF24C029
:1014F00080918D0484FD19C087EE90E008952091BD
:101500008D04237009F05AC020918E0423FF14C06B
:1015100089E290E0089520918D0420FD38C030913B
:101520008E0430FF09C024FF43C090E080E008959E
:1015300020918D0422FDF7CF089520918D0422FD86
:101540003AC030918E0430FD39C024FFF5CFEDCF85
:1015500020918D0423FFF0CF24FDE7CFCDCF209144
:101560008D0423FD2EC030918E0431FFEECF84EE2A
:1015700090E0089520918D0425FFDECFC9CF209102
:101580008D0425FD21C020918E0423FFD5CF89E352
:1015900090E0D2CF20918D0426FFCECF8AE290E05A
:1015A000089520918D0426FFC7CF81E390E0089530
:1015B00083EE90E0089582EE90E0089580EE90E052
:1015C000089586EE90E0089585E390E008951F93D6
:1015D000CF93DF930E94450AEC01C11580E5D8073F
:1015E000F0F5C11580E4D80708F0AAC0C03ED105C7
:1015F00020F5CD3CD10508F090C0C83AD10578F46B
:10160000C53AD10508F081C0C130D10519F1209744
:1016100009F1C430D105F0F4D0E0C0E01BC0C33CF8
:10162000D105D0F7C85AD0E0CC0FDD1FC959DE4F25
:101630000990D881C02DD4640DC0C11580E2D807AF
:1016400008F0C9C0C11581E0D80708F068C0C83EDD
:10165000D10510F7CE01DF91CF911F910895C036CB
:1016600082E5D80718F5C03482E5D80708F079C0BC
:10167000C03282E5D80708F06DC0C11582E5D807F1
:1016800008F48FC02C2F2695269580E2289F900184
:1016900011248C2F8370C1E0D0E002C0CC0FDD1F7D
:1016A0008A95E2F7C22BD32BDD68D4CFC03C82E50C
:1016B000D807F8F4C03A82E5D80708F067C0C03808
:1016C00082E5D80708F0A8CF2C2F269526952770FD
:1016D00080E2289F900111248C2F8370C1E0D0E01C
:1016E00002C0CC0FDD1F8A95E2F7C22BD32BDA683C
:1016F000B1CFC03E82E5D80708F08ECFDC2FCC27D3
:10170000CC27DF71C06FD06AA5CFC55AD0E0CC59C5
:10171000DE4FC881D0E0D0649DCFD0659BCF8D2FA8
:101720000E94020A182FCE0199270E94450AC12F54
:10173000D0E0DC2FCC27CC27DF71C82BD92B8ACF68
:10174000CE0199270E94450ACC27DF70C82BD92BE0
:10175000D06A80CFCF71D0E0DC2FCC27C16FD06AA8
:1017600079CF2C2F26952695277080E2289F90010F
:1017700011248C2F8370C1E0D0E002C0CC0FDD1F9C
:101780008A95E2F7C22BD32BDC6864CF8C2F8F7144
:101790000E94020AC82FD0E0DC2FCC27CC27DF71B3
:1017A00059CF8C2F8F710E94020A55E0D695C795AC
:1017B0005A95E1F7CF70D0E0DC2FCC27282F30E00E
:1017C00084FF05C044E0220F331F4A95E1F7C22B86
:1017D000D32BD0693FCF8D2F8F710E94020A182F13
:1017E000CE0199270E94450AC12FD0E0DC2FCC27DB
:1017F000CC27DF71C82BD92BD0622CCF8091F80475
:101800009091BF04981301C008958F5F8770FACF3D
:10181000292F983078F5853068F590E035E0239FE2
:10182000800D911D1124682F677023E09695879590
:101830002A95E1F7FC01EE0FFF1FE80FF91FE856AC
:10184000FD4F50E040E080E0219130E0062E02C0E4
:10185000369527950A94E2F721703327042E01C0AC
:10186000220F0A94EAF7822B4F5F5F4F43305105F6
:1018700059F7089580E00895292F983098F585301C
:1018800088F590E035E0239F800D911D1124282FCD
:10189000277041E001C0440F2A95EAF723E09695AE
:1018A00087952A95E1F7FC01EE0FFF1FE80FF91F5E
:1018B000E856FD4F30E020E070E05191DF011197D4
:1018C000CB01022E02C0969587950A94E2F78170AB
:1018D00081958527842385278C932F5F3F4F233065
:1018E000310559F708958093540408959091540454
:1018F00021E030E0F90101C0EE0F8A95EAF7D90145
:1019000002C0AA0FBB1F6A95E2F7EA2B01C0220FA3
:101910004A95EAF7892F8E23E81305C0292B822FD9
:101920000E94730C089520952923F9CF21E030E01F
:1019300001C0220F8A95EAF72095809154048223F2
:101940000E94730C089521E030E001C0220F8A95B7
:10195000EAF780915404822B0E94730C08958093BF
:10196000CE020895982F92959F7011F0892F94E0E0
:10197000282F2695269511F09E5F822F869509F0D7
:101980009F5F892F08959C013A9521153F4150F59D
:10199000FC01EE27F170BC0166277270AC01442790
:1019A00054709C012227387094FF0EC080E1EF2B09
:1019B00009F480E0672B09F08062452B09F0806410
:1019C000232B89F08068089581E0EF2B09F480E0F3
:1019D000672B09F08260452B09F08460232B19F0F6
:1019E0008860089580E00895CF93DF93C091020747
:1019F000D09103078A30C1F42091F904CE018C5FA5
:101A00009440622F70E00E94AC32281B822F66E067
:101A10000E94F732C82FC15018F4DF91CF9108957A
:101A200080E20E94F40CF7CF8D30E9F4CC5FD44013
:101A30002091F904622F70E0CE010E94AC32281B85
:101A4000822F9E01280F311D2115324018F080E0B1
:101A5000D0E0C0E0C80FD11DC450DB4FD0930307C6
:101A6000C0930207DACF96E0FE01ACEFB6E001903A
:101A70000D929A95E1F7803E08F458C086E0FE0189
:101A800011928A95E9F7C0910207D091030746E0C9
:101A900050E0BE018CEF96E00E942D339E012C5F3A
:101AA0003440892B41F1C90145E0969587954A95C7
:101AB000E1F741E050E0BA0102C0660F771F8A9556
:101AC000E2F7CB016091FA047091FB04862B972B0F
:101AD000B9016B5F7F4FE5E076956795EA95E1F791
:101AE00002C0440F551F6A95E2F7842B952B909303
:101AF000FB048093FA042A5F3F4F4091F904642F5E
:101B000070E0C9010E94AC32481B463010F4240F2B
:101B1000311D211572E0370710F030E020E024502D
:101B20003B4F309303072093020777CFF6E08F9F58
:101B3000B00111246653784F46E050E0CE010E9478
:101B40002433A1CFCF93DF93EC01FE018491811167
:101B500003C0DF91CF9108950E94F40C2196F5CF38
:101B6000CF93C091900480917F04C82BC0937802DA
:101B700040E250E06EEA72E088E792E00E942D3386
:101B8000892B11F180E2E8E7F2E0AEEAB2E00190E1
:101B90000D928A95E1F7E0918404F09185043097E5
:101BA00099F080915301882349F080918D0487FF3B
:101BB00005C0C093790286E0809378020280F381A9
:101BC000E02D88E792E00995CF910895CF93DF93B8
:101BD000EC01E985FA85309719F06B857C850995CC
:101BE0008B81982F909580917F04892380937F0427
:101BF0000E94B00D85E0FE0111928A95E9F7DF9110
:101C0000CF910895CF93DF93EC018C8181FD12C0B9
:101C100082608C8380917F049B81892B80937F04D9
:101C20000E94B00DEF81F885309721F06B857C859F
:101C3000CE01099510928104109280048C8180FD60
:101C400003C0CE010E94E60DDF91CF910895882355
:101C500041F0809590917F04892380937F040E94B6
:101C6000B00D0895882339F090917F04982B9093BC
:101C70007F040E94B00D0895882341F080959091D3
:101C800090048923809390040E94B00D08958823C6
:101C900039F090919004982B909390040E94B00D8D
:101CA00008950F931F93CF93DF938B01EA019091D7
:101CB000B504943061F58093E9008FEF9091E800CE
:101CC000815095FD06C095ED9A95F1F700008111C0
:101CD000F5CF8091E80085FF1AC00E94E2068111CD
:101CE00011C08091E80085FD06C08091E8008E77E4
:101CF0008093E800F2CFF80181918F018093F10089
:101D0000219779F78091E8008E778093E800DF9142
:101D1000CF911F910F91089543E050E0BC0184E002
:101D20000E94510E089546E050E0BC0184E00E94FC
:101D3000510E0895CF93DF93EC01809153018111EF
:101D400011C048E050E0BE0181E00E94510E80E2E7
:101D5000FE01A3E9B4E001900D928A95E1F7DF91CD
:101D6000CF91089580918D0487FF05C040E284E003
:101D700050E0BE01EACF48E081E0FACF259A35B1C4
:101D80003F7D25B120624FB7F89484E593E0FC01D4
:101D90005191CF0168E025B9000000C057FF35B967
:101DA000550F000000C000C000C035B900C06A95E2
:101DB00091F7F3E0883D9F0751F74FBF8FE594E01F
:101DC0000197F1F700C000000895B0E0A0E0EBEE4D
:101DD000FEE00C94C8327C015B016A01809104032F
:101DE00001E010E08A3010F40AE010E0C1E0D0E039
:101DF000B501C701F6010995811104C021960C17A0
:101E00001D072CF4CDB7DEB7EAE00C94E432CC9F8A
:101E10009001CD9F300D300D112490E080E045E31E
:101E20004A95F1F70000019682179307C1F7E0CFBA
:101E30008091DB02811110C08091D8008061809375
:101E4000D8008AE18A95F1F700C08091D90080FF1F
:101E50000AC081E08093DB0281E09091DB02913047
:101E600009F080E0089582E08093DB020E94C306BF
:101E70001092B504F1CF0E94180F882359F0E09119
:101E80008404F0918504309729F00190F081E02DD1
:101E90000995089580E00895FF920F931F93CF93C3
:101EA000DF93EC01F62E042F122F0E94180F8111E0
:101EB0000FC0C631D1057CF06697FE01EE0FFF1F03
:101EC000EC0FFD1FEC5AFC4FF1820083128303C01C
:101ED000C631D10594F3CDB7DEB7E5E00C94E93215
:101EE000B0E0A0E0E6E7FFE00C94C732082F809155
:101EF0004501801321C090914C03937020914401BF
:101F000030E081E09217130609F480E0817080933D
:101F100048018091510390914701981739F08093BF
:101F2000470140E060E080E00E948E09002331F02C
:101F3000013079F080E044C081E0E8CF8091480131
:101F4000882309F43DC040E060E080E00E948E09F3
:101F5000F1CFB090460189E0B89EB02C1124D9E0B1
:101F6000DB0DDD3208F0DCE20E94180F882319F047
:101F7000D73108F0D6E10E94180F811105C026E183
:101F8000B21610F4C6E1BC2E90904D0340914E0362
:101F9000E0914F03F0E0E657FC4F411129C0F49067
:101FA0001F2DCF2DCB2CD12CCD1608F495C00E941F
:101FB000180F882309F4A2C081E0D63108F0BACF07
:101FC000909146019F5F9093460181110CC082E081
:101FD0008093490180914801811105C0011103C01E
:101FE00083E080934901CDB7DEB7EBE00C94E33298
:101FF000E42EF12CC491AC2EEC2FF0E0A6E09A9EDA
:10200000C00111242FEF30E0B9010E94AC32892DBC
:1020100090E0880F991F55E5569FD001579FB00D4E
:1020200011248A1B9B0B982E990C980ED901AE197E
:10203000BF09AE9FC001AF9F900DBE9F900D1124B0
:10204000192F499DA0011124452F5527D901A41B03
:10205000B50BAE9F6001AF9FD00CBE9FD00C11247A
:10206000D901A919B109AE9DA001AF9D500DBE9D2A
:10207000500D1124452F5527241B350B2E9FA001F1
:102080002F9F500D3E9F500D1124F52E623071058B
:10209000A1F050F46115710509F484CF6130710528
:1020A00081F0F92E1D2D7ECF6430710569F080F02E
:1020B0006630710509F476CFF4CFFC2EC92F152FA9
:1020C00071CFFC2ECD2D6ECFF92E1C2FC52F6ACFD0
:1020D000C92F1A2DFD2C66CFF601ED5CFD4F8081D6
:1020E00090914701892331F0212F4F2D6C2FC6018C
:1020F0000E944C0FBFEFCB1ADB0A56CF81E0DC32D7
:1021000008F45ECF17CF0F931F930E94180F8823F8
:1021100029F00E9431081F910F9108950E94310803
:1021200000910503109106032091070330910803E5
:10213000600F711F821F931FEECF0E9483100895BE
:10214000CF93DF93C1E8D1E060E0CE010E94783305
:102150002196C11584E0D807B9F7DF91CF91089592
:102160001F93CF93DF93122F8330E0F46830D0F4C5
:102170004530C0F4C42FD0E0CC0FDD1F9AE0699F3A
:10218000C00DD11D112490E5899FC00DD11D1124D2
:10219000632FCE0189960E947833612FCE018A96F3
:1021A0000E947833DF91CF911F910895CF93C82F6C
:1021B0006FEF811163EA85E290E00E9478336FEF60
:1021C000C11164EE86E290E00E9478336FEFC11196
:1021D00062EF87E290E00E947833CF910895AAE001
:1021E000B0E0E5EFF0E10C94C532A0905101B09061
:1021F000520181E090E090935201809351018DE66D
:10220000C82E85E0D82E00E0760110E015C0F4015C
:1022100025913491472D612F802F0E94B01082E0CC
:10222000880E911C739485E07812F1CF8AE0E80E55
:10223000F11C1F5F183019F04701712CE8CF0F5FB8
:1022400080E5C80ED11C0330F9F61A8219821C826F
:102250001B821E821D8218861F8288EC90E09A875E
:10226000898701E311E04AE050E0B801CE01019610
:102270000E949C33065F1F4F013881E0180799F7D1
:10228000B0925201A09251012A96EDE00C94E132F5
:1022900080E00E94D61060E088E290E00E947833EF
:1022A0000E94EF100E94A01081E00E94D6100895B5
:1022B0009B01883070F49AE0899FB00111246F5C13
:1022C0007E4F4AE050E0C9010E944A3390E080E02E
:1022D00008958FEF9FEF0895AAE0B0E0E2E7F1E103
:1022E0000C94D0329C0137552F3F310509F068F42A
:1022F000BE016F5F7F4F0E945811892B31F4898591
:102300009A852A96E2E00C94EC3288EC90E0F9CFC2
:102310000F931F93CF93DF93833030F5683020F510
:10232000453010F5C42FD0E0CC0FDD1F2AE0629FAE
:10233000C00DD11D112430E5839FC00DD11D112486
:10234000CE0189960E945A33082F10E0102F0027E3
:10235000CE018A960E945A339801282BC901DF9139
:10236000CF911F910F91089590E080E0F8CF462F14
:102370002091330330913403232B99F4703F39F4C7
:10238000603F79F48091D8039091D9030895783013
:1023900040F4653030F4833020F4672F0E948811B8
:1023A000089590E080E00895CF92DF92FF920F931E
:1023B0001F93CF93DF936C01009154048091CE0260
:1023C000082BC2E0D0E010E0FC2EC8010C2E02C0A9
:1023D000959587950A94E2F780FD0CC02197A0F7A8
:1023E000F12C8F2DDF91CF911F910F91FF90DF90F6
:1023F000CF900895B6018C2F0E94B7110E94E70A72
:10240000019761F3EECFCF93DF93EC010E94D411DB
:10241000BE010E94B7110E94E70ADF91CF91089593
:10242000FC0124812223C1F0808191810E9403124A
:1024300092959F70963091F058F4925F9F70923011
:1024400058F4803F19F030F4883E30F481E008956C
:102450009A5FF4CF843FD1F380E00895883EB0F3D3
:10246000813FD1F7F3CFA6E0B0E0E9E3F2E10C94CD
:10247000CF3226E0FC01DE01119601900D922A95E3
:10248000E1F7FC01258189819A81222399F0662355
:1024900089F00E94D411182F682F89819A810E9497
:1024A0003C0C69817A81812F0E94B7112696E3E066
:1024B0000C94EB320E94080C182FF3CF85E290E0C9
:1024C0000E945A33833A89F486E290E00E945A339C
:1024D000843E59F487E290E00E945A3391E0823FB3
:1024E00009F090E0892F8170089580E0FCCFB0E082
:1024F000A0E0EDE7F2E10C94CA326C017B0164E6E6
:1025000070E088E70E940A308C01E601EC0CFD1CAB
:1025100017FD0BC0FE01849164E670E00E947630E6
:102520008C012196CE15DF0599F70E94EC3081E0F1
:102530000115110509F080E0CDB7DEB7E8E00C9495
:10254000E63280917B0490917E04911103C091E06A
:1025500089270895882369F062E070E08CE894E0B0
:102560000E947712811103C080917B04089510921C
:102570007B0480917B04EBCFCF93C0917B0480914F
:102580007E048823D1F00E943108605A75418F4F34
:102590009F4F6093770470937804809379049093AD
:1025A0007A04C11108C062E070E08AE894E00E94F9
:1025B0007712811105C0C0917B048C2FCF910895B3
:1025C00081E080937B04F7CF48E050E068E170E061
:1025D0008CE493E00E94683310924B030895CF92ED
:1025E000DF92EF92FF92CF930E9483106093420399
:1025F00070934303809344039093450320914A03CF
:10260000C0E0211108C020914C03C22FC37019F003
:10261000C22FC695C695209149012130D1F02223C1
:1026200051F0223001F1233011F1CF91FF90EF9062
:10263000DF90CF9008951092460160934603709307
:102640004703809348039093490381E080934901B5
:10265000ECCF8C2F0E94700FCC2339F30E94180FFF
:102660000E94180FE2CF8C2F0E948109DECF80914B
:102670004B0381110E94E412C0904603D09047039F
:10268000E0904803F09049030E94180F8823C1F09E
:102690002FB7F8946091890470918A0480918B041B
:1026A00090918C042FBF6C197D098E099F096031B0
:1026B00071058105910508F4B8CF10924901B5CF95
:1026C0000E948310F0CFECE4F3E085E080838091FA
:1026D000540190915501A091560181839283A38367
:1026E0008FE784838FEF85830E94E412089590E042
:1026F00080E00E946233863E9E4F19F40E945E1273
:10270000089580E00895A9E0B0E0E9E8F3E10C94D1
:10271000CE3288E0ECE4F3E0DE01119601900D92F8
:102720008A95E1F780914A03898749E050E067EF95
:1027300072E0CE0101960E942D33009100031091AA
:1027400001032091020330910303EFB7F894409105
:10275000890450918A0460918B0470918C04EFBFBE
:10276000401B510B620B730B44365105610571051B
:1027700018F411E0892B21F18091290190912A010F
:1027800084519D4F4091280150E04A30510510F08E
:1027900049E050E0BE016F5F7F4F0E943A3385E011
:1027A00090E00E943632182F882351F00E943108A1
:1027B00060930003709301038093020390930303DB
:1027C000812F2996E4E00C94EA32A4E0B0E0EBEE2D
:1027D000F3E10C94CF324091E8025091E90260910C
:1027E000EA027091EB022FB7F894809189049091DE
:1027F0008A04A0918B04B0918C042FBF841B950B8D
:10280000A60BB70B11E084369105A105B10570F157
:102810000E9483106E5F7F4F8F4F9F4F69837A8333
:102820008B839C83809121019091220184519D4F43
:102830004091200150E04530510510F044E050E057
:10284000BE016F5F7F4F0E943A3384E090E00E94A8
:102850003632182F882351F00E9431086093E80225
:102860007093E9028093EA029093EB02812F249601
:10287000E3E00C94EB324F925F927F928F929F92A3
:10288000AF92BF92CF92DF92EF92FF920F931F937E
:10289000CF93DF930F92CDB7DEB7C62E4A01590111
:1028A000482E880F5508C2010E943632782E8823A0
:1028B00009F480C0C20133E0880F991F3A95E1F70F
:1028C000FC01E050FF4F438150E04115510511F0EC
:1028D00041E050E080509F4FFC016481758164515C
:1028E0007D4FCE0101960E943A33F401408151811F
:1028F000628173812FB7F8948091890490918A0442
:10290000A0918B04B0918C042FBF841B950BA60B58
:10291000B70B84369105A105B10540F4B701C80194
:102920000E94B1089981891709F444C00C2C000C4D
:10293000DD08C6010E943632782E811113C0712C39
:10294000872D0F90DF91CF911F910F91FF90EF9006
:10295000DF90CF90BF90AF909F908F907F905F90CF
:102960004F900895C60123E0880F991F2A95E1F73B
:10297000FC01E050FF4F438150E0E416F50608F4F7
:10298000A70180509F4FFC016481758164517D4F88
:10299000C5010E943A33B701C8010E94B10899816C
:1029A0008913CDCF0E943108F40160837183828343
:1029B0009383C6CFA701B801C5010E943A33C0CFA7
:1029C000A4E0B0E0E6EEF4E10C94CA326B0184E0DE
:1029D000E82EF12C0DEE12E09E012F5F3F4F40EEEE
:1029E00052E061E080E00E943B14882361F049815D
:1029F0005A816B817C814093DC025093DD026093AD
:102A0000DE027093DF024091DC025091DD026091A2
:102A1000DE027091DF02F60140835183628373838B
:102A20002496E8E00C94E632A8E0B0E0EAE1F5E1B3
:102A30000C94D03266EE7EEF90E080E00E949633F8
:102A400060E082E090E00E94783360E083E090E014
:102A50000E9478331092CE0260E074E184E090E04E
:102A60000E94963360E086E090E00E9478336FEF3A
:102A700087E090E00E94783340E050E0BA0188E0BF
:102A800090E00E948A3360E084E290E00E94783314
:102A900060E087E190E00E94783360E08CE090E0B5
:102AA0000E94783360E08DE090E00E9478331982D4
:102AB0001A821B821C821D821E821F82188648E099
:102AC00050E068E170E0CE0101960E94683340E07A
:102AD00050E0BA0180E290E00E948A3380E00E94D8
:102AE000D6100E94481140E050E0BA018FE090E01B
:102AF0000E948A3340E050E0BA0183E190E00E94F6
:102B00008A332896E2E00C94EC321F920F920FB6B3
:102B10000F9211242F933F934F935F936F937F9363
:102B20008F939F93AF93BF93EF93FF938091E100B7
:102B300082FF09C08091E20082FF05C08091E10020
:102B40008B7F8093E1008091DA0080FF24C0809128
:102B5000D80080FF20C08091DA008E7F8093DA0059
:102B60008091D90080FF9DC080E189BD82E189BD4F
:102B700009B400FEFDCF81E08093B50480918F04FD
:102B8000811109C00E94C3060E9464078091E2007F
:102B900084608093E2008091E10080FF17C0809103
:102BA000E20080FF13C08091E2008E7F8093E200FC
:102BB0008091E20080618093E2008091D800806281
:102BC0008093D80019BC85E08093B5048091E10022
:102BD00084FF2BC08091E20084FF27C080E189BD83
:102BE00082E189BD89B5982F917080FFFBCF8091DC
:102BF000D8008F7D8093D8008091E1008F7E8093F4
:102C0000E1008091E2008F7E8093E2008091E200FB
:102C100081608093E2008091B604882309F447C064
:102C200084E08093B5048091B5048091E10083FF36
:102C300027C08091E20083FF23C08091E100877F5D
:102C40008093E10082E08093B5041092B6048091F5
:102C5000E1008E7F8093E1008091E2008E7F80937F
:102C6000E2008091E20080618093E20042E060E057
:102C700080E00E9432078091F00088608093F0002D
:102C8000FF91EF91BF91AF919F918F917F916F9144
:102C90005F914F913F912F910F900FBE0F901F901A
:102CA000189519BC1092B50410928F0474CF8091BE
:102CB000E30087FD93E09093B504B5CF78941F921D
:102CC0001FB61F9211248F939F93AF93BF93809150
:102CD000890490918A04A0918B04B0918C04019690
:102CE000A11DB11D8093890490938A04A0938B0445
:102CF000B0938C04BF91AF919F918F911F901FBE95
:102D00001F9018959C014FB7F89480918904909179
:102D10008A04A0918B04B0918C044FBF821B930B4B
:102D200008952FB7F8948091890490918A04A09116
:102D30008B04B0918C042FBF0895ABE0B0E0E3EAC0
:102D4000F6E10C94C13280917E04882309F462C0BC
:102D500080917C0490917D040E948216C297B8F104
:102D60000E94911690937D0480937C048CEF94E0F4
:102D700090930307809302070E94180F882309F499
:102D80006EC0809154040E94B20C813009F446C098
:102D9000882389F0823009F44CC0833009F454C090
:102DA00087EA94E00E94A20D8CE994E00E94A20DB3
:102DB0008EE894E00AC082E295E00E94A20D8FE1C5
:102DC00095E00E94A20D82E195E00E94A20D809103
:102DD000FA049091FB04892B21F080917E048111EB
:102DE0004DC080917B048823A9F00E943108009196
:102DF0007704109178042091790430917A04601B53
:102E0000710B820B930B6F3F7F4F8F4F9F4710F4D7
:102E10000E94A1122B96E1E10C94DD3287E095E04F
:102E20000E94A20D82E095E00E94A20D84EF94E042
:102E3000CCCF89EE94E00E94A20D82EE94E00E9435
:102E4000A20D84ED94E0C1CF89EC94E00E94A20D24
:102E500080EC94E00E94A20D81EB94E0B6CF8DE26D
:102E600095E00E94A20D80917E04882309F4AFCFE3
:102E70008091FA049091FB04892B09F180917604EA
:102E80008111AFCF0E94BC122091FA043091FB0453
:102E90002115310509F4A5CF80E041E050E0082F6D
:102EA00010E07A01082E02C0EE0CFF1C0A94E2F733
:102EB000B70162237323672B21F58F5FF0CF8091D9
:102EC000760481118ECF198287E28A831B821C824D
:102ED0001D8287E08E831F828FEF88878FE289872C
:102EE00024E630E049E050E0BE016F5F7F4F88E7A5
:102EF0000E94A430892B09F06ACF81E08093760488
:102F000066CF9091750490FF9CC0880F880F880F42
:102F100080934C0110924F01895F80934D0183E0B3
:102F20008093500124E630E047E050E06AE471E02D
:102F300088E70E94A430892B09F053CFA80125E02F
:102F4000440F551F2A95E1F78091750480FF8BC0CF
:102F5000E5E5F4E080E2DF011D928A95E9F7E3E61A
:102F6000F2E0FB87EA870FE512E087E6A82E82E011
:102F7000B82E97E0392E44244394AA85BB858D91C1
:102F8000BB87AA87F80121918F01240F352F311DAE
:102F900024503B4FE82FF0E0EB5AFB4F90E080E0ED
:102FA000632C681A742C082E01C0770C0A94EAF777
:102FB0006901812CD6019D906D019720662D6819BD
:102FC0006770562E062E000C770BB92D01C0BB0F73
:102FD0005A94EAF77195619571096770772701C076
:102FE00096946A95EAF79B2A6081562E592850825A
:102FF000839468E08612DECF019631968830910581
:1030000079F68A859B85A816B90609F0B6CF04E63D
:1030100010E020E230E045E554E060E488E70E94FB
:10302000C530892B09F0DDCEE094F0948091FA044C
:103030009091FB04E822F922F092FB04E092FA045A
:10304000D0CE8295880F807680934C01980136957A
:1030500027953695279520934F01815E80934D01EA
:10306000209350015FCF44505B4F04E610E020E214
:1030700030E0D3CF0E9491169C0190913E03809145
:103080003F03982B21F030933B0320933A03909118
:10309000400380914103982B21F030933903209312
:1030A0003803E0918404F0918504309749F082E080
:1030B00080933C030480F581E02D8CE393E0099537
:1030C000089580915301EAE7F2E0882329F1809185
:1030D0008D0487FF21C08EE1DF011D928A95E9F7FB
:1030E00090E080E00E948C0890E080E00E946708F9
:1030F00010927F040E94B00D86E0ECE3F3E0DF0164
:103100001D928A95E9F710923503109236031092BA
:1031100037030E943A18089586E0DECFAAE2B0E0B5
:10312000E4E9F8E10C94CF3287EB94E02091F100D0
:10313000DC012D93CD01B4E08F3B9B07B9F7809163
:10314000B804833009F472C0B8F4813009F449C07E
:10315000823009F4B5C08091E80083FF98C2809165
:10316000B7049091B8049A3008F091C2E92FF0E0CA
:10317000EA54FC4C0C9417338A3009F490C08B301D
:1031800009F471C0893039F78091B704813219F799
:103190008091BB049091BC04009711F00297D9F67E
:1031A0008091E800877F8093E8008091E80082FFAB
:1031B00038C09091F3008091F200029731F4809131
:1031C000F100813011F0863021F48091F10080937C
:1031D00092048091E8008B778093E8000E941307A7
:1031E000BACF8091B704813A09F0B5CF8091E80059
:1031F000877F8093E8008091BB049091BC04892B69
:1032000061F460E283E994E070E00E94BF0780917E
:10321000E8008B778093E8009ECF60E090E080E04C
:10322000F3CF8091B5048111C0CF95CF8091B704C1
:10323000813A09F090CF8091BB049091BC04892B16
:1032400009F089CF8091E800877F8093E800809122
:10325000E80080FFFCCF809153018093F1008091C2
:10326000E8008E77B9CF8091B704813209F073CF2F
:103270008091BB049091BC04892B09F06CCF8091A4
:10328000E800877F8093E8000E9413078091B904CB
:1032900080935301109290040E9461185CCF80913A
:1032A000B704813209F057CF8091E800877F80937F
:1032B000E8000E9413078091BA04809391044BCFD9
:1032C0008091B704813A09F046CF8091E800877F6A
:1032D0008093E8008091E80080FFFCCF809191040A
:1032E000BCCF803899F0823809F0D1C18091BB04FD
:1032F0008F70873008F0CBC18093E9008091EB009C
:1033000085FB882780F91092E90006C08091B304FC
:103310009091B404911182609091E800977F90930E
:10332000E8008093F1001092F1008091E8008E7720
:10333000AAC1882309F498C1823009F0A8C18091FC
:10334000B90481119BC18091BB048F702FEF280FAE
:10335000263008F09CC18093E9002091EB0020FF0B
:103360008DC1933031F48091EB0080628093EB004B
:1033700085C19091EB0090619093EB0021E030E0EB
:1033800001C0220F8A95EAF72093EA001092EA0022
:103390008091EB008860EACF811179C11091B90466
:1033A0001F778091E3008078812B8093E3008091E8
:1033B000E800877F8093E8000E9413078091E8006F
:1033C00080FFFCCF8091E30080688093E30082E07F
:1033D000111183E08093B5045AC18058823008F0FF
:1033E00056C12091B9043091BA042C3DE3E03E0768
:1033F000A1F583E08A838AE289834FB7F894DE01DE
:10340000139620E03EE051E2E32FF0E050935700A6
:10341000E49120FF03C0E295EF703F5FEF708E2FC5
:1034200090E0EA30C0F0C7968D939D932F5F2431D2
:1034300059F74FBF8091E800877F8093E8006AE2E8
:1034400070E0CE0101960E94BF078091E8008B7763
:103450008093E8001CC1C096E7CF8091BB04909197
:10346000BC04432F55274330510509F44AC078F571
:103470004130510509F485C08BE590E0EDE5F6E0BB
:103480004230510509F003C12091E800277F2093C5
:10349000E8002091BD043091BE048217930708F420
:1034A0009C0140E02115310509F070C041116EC04A
:1034B0008091E80082FDC9CF8091B504882329F26C
:1034C000853019F28091E80083FFF2CFBECF413200
:1034D000510509F447C04232510509F0D8C0833084
:1034E000910508F0D4C0FC01EE0FFF1FE659FD4F17
:1034F0000190F081E02D89599D4FDC018C9190E085
:103500001DC0332721303105E9F02115310579F04F
:1035100022303105F9F02330310509F0B8C0EAEC6A
:10352000F6E0E4918E2F90E0EAECF6E007C0E6E1E9
:10353000F7E0E4918E2F90E0E6E1F7E0009709F4E0
:10354000A6C0A2CFECEFF6E0E4918E2F90E0ECEF76
:10355000F6E0F4CFE8EEF6E0E4918E2F90E0E8EEAE
:10356000F6E0ECCF8330910508F091C0880F991FE9
:10357000FC01E059FD4F0190F081E02D89E090E0E1
:1035800083CF82E190E0E8EBF6E07ECF8091B50456
:10359000882309F45ACF853009F457CF8091E80089
:1035A00083FD53CF8091E80082FD82CF8091E800B7
:1035B00080FF78CF9091F3008091F20021153105C2
:1035C00019F08830910550F041E0089709F040E08B
:1035D0008091E8008E778093E80064CF4491409317
:1035E000F1003196215031090196E8CF803809F079
:1035F0004EC08091E800877F8093E8008091B604F8
:103600008093F10092CE811142C01091B904123022
:10361000F0F58091E800877F8093E8001093B6046E
:103620000E941307112311F084E005C08091E3008C
:1036300087FDFACF81E08093B50442E061EC81E040
:103640000E94320742E261EC84E00E94320742E2CB
:1036500061EC82E00E94320742E260EC83E00E946B
:1036600032078091B50413C08091B904813079F498
:1036700081E0933009F080E08093B4041092E90077
:103680008091E800877F8093E8000E941307809173
:10369000E80083FF0AC08091E800877F8093E800FC
:1036A0008091EB0080628093EB00AA96E3E00C949B
:1036B000EB321F920F920FB60F9211242F933F936C
:1036C0004F935F936F937F938F939F93AF93BF932A
:1036D000CF93DF93EF93FF93D091E900DF70809158
:1036E000EC00C82FC17080FDC0E81092E900809105
:1036F000F000877F8093F00078940E948E181092DB
:10370000E9008091F00088608093F000CD2BCF70AD
:10371000C093E900FF91EF91DF91CF91BF91AF91FD
:103720009F918F917F916F915F914F913F912F91D9
:103730000F900FBE0F901F901895109290040E944A
:1037400061182FEF84E39CE0215080409040E1F726
:1037500000C0000088E19AE00FB6F894A895809325
:1037600060000FBE90936000FFCF662309F45DC038
:103770008D3C41F40E94C909819580933F030E94CA
:103780003A1808958E3C19F40E94C909F6CF8F3C6F
:1037900031F40E94C909819580933E03F0CF803DAA
:1037A00019F40E94C909F8CF893D29F40E94A7099C
:1037B00080934003E4CF8A3D21F40E94A7098195BC
:1037C000F7CF8B3D31F40E94A70981958093410387
:1037D000D6CF8C3D19F40E94A709F8CF9FE2980F2D
:1037E000983070F4815D990B21E030E001C0220F28
:1037F0008A95EAF780913D03822B80933D03BFCFEA
:103800008D3D31F480913703816080933703B7CFCA
:103810008E3D21F4809137038260F7CF8F3D09F010
:10382000AECF809137038460F0CF40913E038D3C52
:1038300059F480913F0387FF0DC010923F0341115F
:103840000BC01092350308C08E3C81F480913F0379
:1038500018169CF3442381F080914003909141031A
:10386000892B09F08CCF1092360389CF8F3C49F415
:1038700047FFF0CF10923E0380913F038111ECCFC0
:10388000E0CF803D19F41416ACF3E4CF90914003DF
:10389000893D29F41916F4F610924003DBCF8A3DD6
:1038A00019F497FFD7CFF8CF909141038B3D29F4BE
:1038B00097FFD0CF10924103CDCF8C3D19F419164C
:1038C000CCF3C8CF9FE2980F983090F4815D990BAC
:1038D00021E030E0B90102C0660F771F8A95E2F758
:1038E000CB01809590913D03892380933D03B2CF16
:1038F0008D3D31F4809137038E7F80933703AACFBB
:103900008E3D21F4809137038D7FF7CF8F3D09F0F5
:10391000A1CF809137038B7FF0CF8823D1F19CEF2B
:10392000980F913A40F4682F88E792E00E943D0892
:103930000E94B00D089590E2980F983088F4877037
:1039400021E030E0A90102C0440F551F8A95E2F73B
:10395000CA01809590919004892380939004E8CFC8
:103960009BE5980F933028F490E080E00E948C084B
:10397000089598E5980F9B3128F490E080E00E942C
:103980006708089593E3980F933118F460E00E945C
:10399000B51B0895CF93C82F882309F442C08CEF3C
:1039A0008C0F813A08F065C0809153018823D9F1CA
:1039B00080918D0487FF37C0EC2FE695E695E6955C
:1039C000F0E0E858FD4F828190E04C2F477021E0F5
:1039D00030E002C0220F331F4A95E2F7822393237F
:1039E000892B61F06C2F88E792E00E943D080E94CD
:1039F000B00D23C080918D0487FF23C0EC2FE69586
:103A0000E695E695F0E0E858FD4FC77021E030E01C
:103A100001C0220FCA95EAF78281822B82830E941D
:103A2000B00DCF910895EAE7F2E080E892E02191AD
:103A3000C217C1F28E179F07D1F7809153018111F0
:103A4000D9CFAAE7B2E0EFEF80E09D91C91739F333
:103A5000EF3F19F4911101C0E82F8F5F8630A9F76D
:103A6000EF3FE9F20E2E000CFF0BE858FD4FC2832A
:103A7000D6CF80E28C0F883068F4C77021E030E048
:103A800001C0220FCA95EAF780919004822B80939F
:103A90009004C5CFEBE5EC0FE33040F4F0E0EC59D7
:103AA000FE4F808190E00E948C08BBCFE8E5EC0FD0
:103AB000EB3150F4F0E0EE0FFF1FE959FE4F80812B
:103AC00091810E946708ADCF83E38C0F833108F0AA
:103AD000A8CF61E08C2F0E94B51BA3CF1F93CF937B
:103AE000DF93182FEB010E94CA1C209739F4812F15
:103AF0000E948D1CDF91CF911F9108958FE99FE067
:103B00000197F1F700C000002197EFCF70E060E06F
:103B1000893311F460E570E00E946E1D0895B0E0F5
:103B2000A0E0E5E9FDE10C94C832EC018AE0A82EA2
:103B30002881222309F48FC02130C9F599818A8117
:103B4000913021F422960E94861D05C0923029F4FE
:103B500022960E94CA1C2196EBCF933021F4229624
:103B60000E948D1CF8CF943011F02196F4CF22964C
:103B700030E020E0AE014F5F5F4F8053990B8A30F9
:103B8000910550F02150310930F38FE99FE0019702
:103B9000F1F700C00000F6CFA29EB001A39E700D09
:103BA00011249C01260F371F8981EA01E3CFE22F00
:103BB000F0E0E65BF84FB490822F86958695869567
:103BC00090E0FC01E65CF84FE4902770F12C022EA7
:103BD00002C0F594E7940A94E2F731E0E322FF246F
:103BE000FC01E65DF84FC490D12C022E02C0D594A2
:103BF000C7940A94E2F731E0C322DD24FC01E65EBB
:103C0000F84F049110E002C0159507952A95E2F748
:103C100001701127E114F10419F081EE0E94CA1C11
:103C2000C114D10419F086EE0E94CA1C8B2D0E948B
:103C3000861DC114D10419F086EE0E948D1CE1147A
:103C4000F10419F081EE0E948D1C0115110509F493
:103C500082CF8CE278CFCDB7DEB7EAE00C94E432C5
:103C600081110DC0662339F06AE070E089EA0E9494
:103C70006E1D81E008956AE070E08AEAF8CF8BEA71
:103C8000611101C08CEA0E94861DF3CFA1E0B0E073
:103C9000ECE4FEE10C94C932EE24E394F12C02EF43
:103CA00012E09E012F5F3F4F44EE52E063E082E05E
:103CB0000E943B14C82E882339F100E080E01DC02B
:103CC000D0900A03D00E2D2D30E0A901405E5C4F4C
:103CD0007A01E1E0F0E0EC0FFD1FE00FF11D108133
:103CE000FA019081191BB12E1B149CF0912F17FD26
:103CF00090E0191B111118C00F5F9091090309176B
:103D0000F8F281110E949D108C2D2196E9E00C940F
:103D1000E532BA94F70180818F5F808360E08D2D5A
:103D20000E94301E8C2DE0CF1F5FF70180818150F3
:103D3000808361E08D2D0E94301E8C2DDBCFACE0A6
:103D4000B0E0E5EAFEE10C94C5328E010F5F1F4F33
:103D500088E0D8011D928A95E9F785E3C82E81E0B5
:103D6000D82EF12CE12CAA24A394B12C25E3822E89
:103D700021E0922EF60181916F018F3F09F442C03C
:103D8000F894E82FE295EF70F0E021A18F70A50183
:103D900002C0440F551F8A95E2F7CA01922F982B53
:103DA00091A392A18095892382A3789400C0E0E337
:103DB000F1E0712C31E021912F3F09F46BC0A22F6B
:103DC000A295AF70B0E090968C9190E02F7002C0F9
:103DD000959587952A95E2F780FD5CC0832F782A18
:103DE000330F8E169F0639F7F601319780818F3F8A
:103DF00011F00E94EB0950EA5A95F1F7F801EE0D27
:103E0000FF1D70828FEFE81AF80AA4E0EA16F104A9
:103E100009F0B0CF48E050E0B8018BE093E00E9499
:103E20002D33009741F028E0F801ABE0B3E00190BA
:103E30000D922A95E1F700911403892B69F181E035
:103E40008093D3020E9491169093D2028093D10264
:103E50008091D1029091D2020E948216059700F1C2
:103E600010E0055D1C4F44E050E06BE073E0C801DA
:103E70000E942D33B12C892B51F084E0EBE0F3E06C
:103E8000D80101900D928A95E1F7BB24B39410926A
:103E9000D30207C080E0A3CF8091D3028111D8CF95
:103EA000B12C0E94180FA82EE0911403882309F466
:103EB00089C019861A861B861C860E2F10E0055DA8
:103EC0001C4F809104038A3008F046C040EE54E154
:103ED000BE01675F7F4FC8010E94E50E882309F489
:103EE00060C046E45EE1BE01675F7F4FC8010E948B
:103EF000E50E882309F455C045EE53E1BE01675F26
:103F00007F4FC8010E94E50E882309F44AC043E8A8
:103F100053E1BE01675F7F4FC8010E94E50E882311
:103F200009F43FC0109204038091130390E044E031
:103F300050E0BE01675F7F4F855D9C4F0E942D332F
:103F400021E02093DA02892BF1F4A12C8A2D8B2910
:103F50002C96EDE00C94E1328091D4029091D50240
:103F60000E948216843F914008F0B0CF8091DA021F
:103F7000882359F3FE01399684E0DF011D928A956A
:103F8000E9F71092DA02E0911303F0E0E55DFC4FEF
:103F900089859A85AB85BC8580839183A283B38311
:103FA000D5CF809104038F3F31F08F5F809304035E
:103FB0008A3008F4B9CF0E9491169093D50280936D
:103FC000D402D4CFF0E0E55DFC4F84E0ADEEB2E08A
:103FD00001900D928A95E1F764E070E08DEE92E039
:103FE0000E94B1088093EC024091250350E060915B
:103FF000240370E0605E7C4FCE0109960E943A3344
:1040000089858093F20261E070E0CE0109960E94FA
:10401000B1088093F102C090F302D090F402E090D6
:10402000F502F090F6028091D6029091D702A0910D
:10403000D802B091D902C816D906EA06FB06D1F01B
:10404000C092D602D092D702E092D802F092D90262
:104050000E94180F81110EC00E943108C61AD70A9B
:10406000E80AF90AC0920503D0920603E09207031A
:10407000F092080388E0E7EFF2E0ACE4B3E00190EF
:104080000D928A95E1F71091FF02112349F080917A
:104090004A03811105C00E94700F80E00E948109CF
:1040A00010934A0353CFA4E0B0E0E9E5F0E20C94AA
:1040B000C8327C01DC0114968C91882309F4ACC1D0
:1040C00061E0C7010E9433128C01F70185818823CA
:1040D00009F180918004909181040097D9F008172C
:1040E0001907C1F0FDE08F9FC0011124FC01E051D0
:1040F000FC4F20812460208384519C4FDC010D9370
:104100001C930E94020E10927F0461E0C7010E947E
:1041100033128C01F7018581882309F4B1C098011D
:1041200037572038310508F0ABC0F02EFFE0F0170C
:1041300008F472C18FEF93E00E945A3381116CC171
:1041400001E811E0F11036C019821A821B821C822C
:10415000BB24BA9478013FEFE31AF30AC8010E9426
:104160005A3389831A82882309F456C1813009F0B1
:1041700081C0680142E0C40ED11CC7010E945A33BD
:10418000E82E8A83882309F447C1C6010E945A3366
:10419000F82E8FEF8E0D8330D8F4680153E0C50EF2
:1041A000D11CFB82FF2021F0CE0101960E948F1DC1
:1041B0008601D0CF011524E0120709F42DC1C801F2
:1041C0000E945A33811101C0FA940F5F1F4FBACF7A
:1041D0008BEF8E0D833030F5C8010396FB826C01A6
:1041E000FF2031F36801A4E0CA0ED11C0E945A33AB
:1041F0008C838823E9F28B819C818130BFEF9B0700
:1042000010F0982F8827E6E0EE1631F0F7E0EF1671
:1042100031F00E946827CCCF0E943027C9CF0E947E
:10422000AA26C6CF24E0E212C3CF680134E0C30E51
:10423000D11CC80103960E945A33FF2009F4ECC038
:10424000882309F4E9C08150990BB89E9001B99E6A
:10425000300D11244F2D4150550BCA01820F931F71
:10426000019708F4A5CFAFE9BFE01197F1F700C0BF
:104270000000F6CFCE0101960E948F1D670198CFF6
:104280006801E7E5DE1A811196C0FFEFCF16D10471
:1042900011F008F096C062EE73E08C2D0E94581168
:1042A000892B29F58DE08C9DF0018D9DF00D112459
:1042B000E451FC4F8281813009F062C08091E203B9
:1042C0009091E303892B99F08091E4039091E503A9
:1042D000892B69F08091E6039091E7032091E80330
:1042E0003091E903822B932B892B09F453C0580199
:1042F000BB248DE0089FF0011124DF01A451BC4FC5
:104300006D01D70115968C91E051FC4F908180FB97
:1043100090F99083882309F46AC00E9491169093C3
:104320001F0380931E03D60112968C9112978F5F04
:1043300012968C93129780917F0490919004892B10
:1043400013968C9313971596ED91FC9116973097D1
:1043500029F01B966D917C91C60109958DE08A9D8F
:10436000F0018B9DF00D1124E451FC4F848181FFFD
:104370003BC090E080E0909380048093810421C052
:10438000823009F0B4CF8091E6039091E703892B46
:1043900009F4ADCF2DE02C9DC0012D9D900D112471
:1043A000FC01E051FC4F20812E7F208384519C4FE3
:1043B0000E94020E9CCF2FEFC216D10409F008F420
:1043C00096CFD70115969C9191112DC280919004A2
:1043D0008272F801E052F847E531F10508F059C062
:1043E000E054FC4C0C941733902F812FC4CFF6016E
:1043F000848181FFE6CFC6010E94E60DE2CF809165
:104400004C0391E0892780934C03109249018091DD
:104410004B03816080934B032496EAE00C94E432D2
:1044200041E759E06CE779E00E94DF08F5CF4CE7FF
:1044300059E061E779E0F8CF4CE459E067E579E0CD
:10444000F3CF47E559E06CE479E0EECF40E359E083
:104450006EE379E0E9CF4EE359E060E379E0E4CF41
:1044600044E159E062E279E0DFCF42E259E064E101
:1044700079E0DACF45EE58E063EF78E0D5CF43EF4F
:1044800058E065EE78E0D0CF61E081E00E946209FB
:10449000C3CF0737BCE71B07A9F10837ECE71E07B6
:1044A000A9F1D7010D911C91992309F454C0C801B9
:1044B0000E94D411D82E682FC8010E943C0CB8016C
:1044C0008D2D0E94B7110E94E70A182FB82EF70110
:1044D0006581268122952F70892F82958F70C82E35
:1044E000D12C8C3008F06FC0F601EB52FC4C0C94D0
:1044F000173381E00E94A30C43E062E081E00E9458
:10450000760C8ACF81E00E94960CF6CF82E0FBCF3A
:104510000130FCE71F07E9F003302CE7120799F0A0
:1045200001151C4709F0BDCF109290040E9461183C
:104530004FEF54E38CE0415050408040E1F700C021
:1045400000000E9420086FEF7FEF90E080E00E9463
:1045500096330E949D1BC8010E94080CD82EAFCF35
:10456000092F0F70907F11F00295007F812F662335
:10457000C9F0002369F090E2910F983010F011110A
:104580000BC080919004082B009390040E94B00D02
:10459000812F0E94CA1C17C080917F04082B0093B2
:1045A0007F04F4CF0E948D1C002369F00095105EFB
:1045B000183010F0B11015C08091900408230093BA
:1045C00090040E94B00D48E0C41AD10854E0C5160A
:1045D000D10410F40E943B0F60E0C7010E94331227
:1045E0001BCF80917F04082300937F04EACF892F9B
:1045F0008F70907F903211F08295807FF1E0BF1232
:104600000CC0662329F02630F0F60E94470EDBCF5F
:104610002530C8F60E943C0ED6CF662319F022231F
:10462000A1F3B6CF2223B1F3193349F42FEF37EEBC
:1046300043E0215030404040E1F700C00000812FAE
:104640000E948D1CC0CF892F86958695837061F05E
:10465000813009F0B8CF812F9370611102C080E0E2
:1046600090E00E946708AFCF812F9370611102C064
:1046700080E090E00E948C08A6CF812F0E94B51B9D
:10468000A2CF892F8370A1F561119DCF812F8295D3
:1046900086958770880F880F412F4F70082E01C0B4
:1046A000440F0A94EAF7212F207114FF07C02FE06E
:1046B00030E001C0220F8A95EAF7209596959695ED
:1046C0009370923081F0822F842B933030F480915C
:1046D000CE02913029F0242B82230E94AF0C73CF9D
:1046E000842B822BFACF242B8091CE028227F5CF08
:1046F0008695662311F0892F8170882309F463CF92
:10470000812F829586958770880F880F412F4F7073
:10471000082E01C0440F0A94EAF7212F207114FFDC
:1047200007C02FE030E001C0220F8A95EAF72095FC
:10473000969596959370923081F0822F842B9330CA
:1047400030F480915404913029F0242B82230E946C
:10475000730C39CF842B822BFACF242B80915404F5
:104760008227F5CF092F0F70662329F0802F0E9432
:10477000A30C812F4ACF812F0E943C0E802F0E94D4
:10478000960C21CF812F51EF151789F1511750F059
:10479000A0EF1A17B9F06623B1F12111F9CE892FD4
:1047A0008F7129C0B2EF1B1749F1E3EF1E13F3CF4E
:1047B00080E0662361F29F7181E001C0880F9A95C5
:1047C000EAF7C5CF662379F0253008F0FCCE292F13
:1047D0002F7181E090E001C0880F2A95EAF790914F
:1047E00054048927B4CF263008F0EDCEF0CF892FBE
:1047F0008F71662321F20E94A30CE5CE892F8F7161
:104800006623C9F3BCCF222359F0893309F017CFAF
:10481000FFEF27EE33E0F15020403040E1F70DCFBD
:10482000892F8F71ACCF0737BCE71B0709F461CE26
:104830000837ECE71E0709F06BCE82E05BCEB0E0F4
:10484000A0E0E5E2F4E20C94CB328091AD02807FEF
:1048500009F051C08091AC02882309F44CC0E0916A
:10486000F80487E0D82E8091BF048E1709F443C066
:104870000E2F10E0ED9DF0011124E054FB4F8481D8
:104880008823F1F1D09EE001D19ED00D1124FE01CC
:10489000E054FB4F91818091A802981331C0908120
:1048A0008091A70298132CC08581811129C0E280D4
:1048B000F3808091A9029091AA02E81AF90A60E0B7
:1048C00087EA92E00E9433120E946C11E816F90602
:1048D000B8F48091AD028F7080618093AD02CA53AD
:1048E000DB4F88818F708061888387EA92E00E9425
:1048F00053200E94FE0BCDB7DEB7E7E00C94E73201
:10490000F8013196E770AFCFA4E1B0E0EAE8F4E255
:104910000C94C3328C0186E0F801DE011F960190F1
:104920000D928A95E1F7F801F480E58087EA882EF8
:1049300082E0982E8091AB0281112AC0F11003C051
:10494000FF24F3941CC0EE20F9F0C8010E9410125D
:10495000F82E8823C9F087E0F801A7EAB2E00190B9
:104960000D928A95E1F78091AB02813031F480910C
:10497000A7029091A8020E9403120E941F248F2D6B
:104980006496EFE00C94DF32C8010E945320D8CF28
:10499000C280D380B090AC028091A9029091AA020B
:1049A0003601681A790ABB2009F4F9C05080A18049
:1049B00060E087EA92E00E9433120E946C11681650
:1049C000790608F0A5C0FF2009F4BACF8091AD02A6
:1049D000382F307F2091A802F8019181311158C001
:1049E000FE2C291314C02091A702908129130FC017
:1049F000E11047C08F7080618093AD0287EA92E03A
:104A00000E9453208091AD02F8018683B8CFE11057
:104A100038C06A2D852D0E94A4066A2D852D0E941E
:104A2000A406E82E8111ABCF5F86A88A8F8598896E
:104A30000E940312292F22952F70243058F49F7062
:104A4000223088F0992399F0F8019681907F79F4CB
:104A5000FE2C95CF2A5F2F70223068F0C8010E948B
:104A60005320EB2CF5CF992311F0882389F3805E36
:104A7000883070F3F3CF803F58F3815F833070F755
:104A8000E7CF8091AD0281608093AD02F12C77CFAA
:104A9000291315C02091A7029081291310C0E1109D
:104AA0000EC08683C8010E94532087E0F801A7EA60
:104AB000B2E001900D928A95E1F7FB2C60CFC8011E
:104AC0000E941012882309F45FCFEE2009F45CCF16
:104AD0008091AD02803288F02091A7023091A80227
:104AE00039872887DB86CA869091AB029C871D8612
:104AF0008E87CE0108960E94532087E0F801A7EA2E
:104B0000B2E001900D928A95E1F70E941F2418CF20
:104B10008091AD02982F907F51F487EA92E00E9435
:104B2000532087E0F40111928A95E9F7AFCFFF2077
:104B300009F406CF2091A802F8019181291311C030
:104B40002091A702908129130CC0E1100AC086832E
:104B5000C8010E94532087E0F40111928A95E9F779
:104B6000ACCFC8010E941012882309F40DCFEE20AB
:104B700009F40ACF8091AD02803208F4BECF2091B3
:104B8000A7023091A8023A832983DC82CB829091DC
:104B9000AB029D831E828F83CE010196ACCF60E075
:104BA00087EA92E00E9433120E946C11681679061F
:104BB00008F0B7CFFF2009F4C3CEFE2CEE2009F495
:104BC000E3CE9091A802F801818198132DC09091B5
:104BD000A7028081981328C08091A9029091AA020F
:104BE000C81AD90AF8ECCF16D104A8F49091AD02F6
:104BF00090FD11C0907F79F08091AD02F80186831D
:104C0000903F31F0982F907F905F8F70892B868333
:104C1000C8010E94532087E0F801A7EAB2E00190A2
:104C20000D928A95E1F7ABCEC8010E941012811156
:104C300064CF8091AD0281608093AD02C8010E9473
:104C400053209DCEABE1B0E0E8E2F6E20C94CF3227
:104C50004E8B5F8B688F798F8A8F9B8F911110920B
:104C60007F041D8A86E0FE017696DE011F96019084
:104C70000D928A95E1F78B89882329F061E0CE01B6
:104C80000F960E94331287E0FE013F96DE011896D0
:104C900001900D928A95E1F7CE0108960E94842436
:104CA00081110CC087E0FE013896DE01119601905B
:104CB0000D928A95E1F78C8581110BC017E08091E8
:104CC000F8049091BF04891333C06B96E3E00C9411
:104CD000EB322091BF0430E0C9010196877099271B
:104CE0004091F8044817190699F097E0929FD00177
:104CF000939FB00D1124A054BB4FFE01319601903B
:104D00000D929A95E1F78093BF040E94FE0BD6CFD7
:104D1000109290040E9461181092BF041092F8043F
:104D200087E0E7EAF2E0DF011D928A95E9F7C6CF56
:104D3000819FC001112480549B4F0E9484248823AA
:104D400021F28091F80490E0019687709927809372
:104D5000F804B5CFA6E0B0E0E0EBF6E20C94CE327A
:104D60008C019093D9038093D803011580E2180732
:104D7000C0F4802F0E948D1CC8010E94C30C9801B2
:104D8000205E31092830310518F00115110531F484
:104D90000E943C0E2696E4E00C94EA320E94270E14
:104DA000F9CF80EF89838A830E9491168160682FF2
:104DB0009C838B8349815A817C8181E090E00E94B1
:104DC0002226E8CF0F931F93CF93DF938C01EB0143
:104DD00062EE73E08C2F0E945811892B71F4DD274D
:104DE000C652DC4F8881F801128218828330F1F0BC
:104DF00048F4813059F0823081F0DF91CF911F91DA
:104E00000F9108958430B9F08530B9F78091E203AD
:104E10009091E303009789F306C08091E403909199
:104E2000E503009799F30E94AA26E7CF8091E60355
:104E30009091E703F6CF8091E8039091E903009702
:104E400091F72091E2033091E3038091E403909184
:104E5000E50321153105F1F2009729F7C901E3CFE8
:104E6000A6E0B0E0E6E3F7E20C94CE328C0190933A
:104E7000D9038093D803011580E21807C0F4C80154
:104E80000E94C30C9801205E31092830310518F0CA
:104E90000115110549F40E94470E802F0E94CA1C7B
:104EA0002696E4E00C94EA320E94320EF6CF80EFB0
:104EB00089838A830E9491168160682F9C838B83EB
:104EC00049815A817C8181E091E00E942226E8CFCD
:104ED000CF93DF93EC010E943027CE010E94AA26D7
:104EE000DF91CF9108950F931F93CF93DF938C01A0
:104EF000862F62EE73E00E945811892BB1F4C091A5
:104F0000E203D091E303209781F0F801828183309E
:104F100051F4CE010E946827CE010E946827CE017D
:104F20000E94682702C08430D0F7DF91CF911F9193
:104F30000F9108950F931F93CF93DF938C01EB0193
:104F400062EE73E08C2F0E945811892B09F05CC02F
:104F5000FE01FF27D80112968C911297E652FC4F62
:104F60008130B9F414969C9192FF02C080830AC0EC
:104F700090FFFCCF82E080838091E4039091E50371
:104F80000097B9F48091E2039091E3030097E1F177
:104F900010C08230B9F514968C9182FD28C080FD36
:104FA0000BC083E080838091E6039091E703009734
:104FB00001F10E94302728C084E080838091E803BB
:104FC0009091E9030097A9F78091E2039091E303A0
:104FD0000097F9F00E9468278091E4039091E5031F
:104FE000009739F78091E2039091E303E2CF85E0E7
:104FF00080838091E2039091E303009729F00E945F
:105000006827F0CF86E08083DF91CF911F910F91C9
:1050100008958091E4039091E503B8CFA6E0B0E055
:10502000E4E1F8E20C94CE320E9491168C0180915A
:10503000CF029091D0028017910781F019821A82D5
:105040000E949116682F49815A81792F80E090E063
:105050000E9422261093D0020093CF022696E4E00D
:105060000C94EA321F921FB61F9211248F939F93C4
:10507000AF93BF9380918804811113C080918904FC
:1050800090918A04A0918B04B0918C044196A11D4B
:10509000B11D8093890490938A04A0938B04B093EC
:1050A0008C04BF91AF919F918F911F901FBE1F9055
:1050B0001895CDB7DEB7E1970FB6F894DEBF0FBEF7
:1050C000CDBF85B7806885BF85B7806885BF84B749
:1050D000877F84BF0FB6F894A8958091600088619F
:1050E00080936000109260000FBE80E890E00FB6E1
:1050F000F89480936100909361000FBE89EE99E06F
:1051000090937702809376020E94C7080E94C3069C
:105110000E9464078091E20084608093E2007894AA
:105120008091B5048823A1F01091E9001F7090913F
:10513000EC00892F817090FD80E8182B1092E90017
:105140008091E80083FD0E948E181F701093E90083
:1051500082E084BD93E095BD9AEF97BD80936E0089
:105160001092050310920603109207031092080391
:105170000E945E12811102C00E9448110E94180F05
:10518000809339010E94180F81110E944A31909139
:10519000390181E0982790932403282F291B20931D
:1051A0000A039091390180932503909139018093EE
:1051B000090380913901811106C086E38093430180
:1051C00082E38093420180914301E82FE295EF70E2
:1051D000F0E061A18F7021E030E0A90101C0440F2F
:1051E0008A95EAF7942F9095962391A382A1842B18
:1051F00082A390914201E92FE295EF70F0E041A186
:105200009F70B90102C0660F771F9A95E2F7CB0134
:10521000962F9095942391A392A1892B82A38FE836
:1052200091E00197F1F700C000001091250366E2BC
:1052300073E043E451E082E4E82E81E0F82EFB01C4
:1052400028C0DA012D91AD01822F82958F7090E0F8
:10525000DC0190968C9190E02F7002C09595879517
:105260002A95E2F78170D7019D917D01292F229522
:105270002F7030E0D90190962C9130E09F7002C0E1
:10528000359527959A95E2F790E020FD92E0892BDD
:1052900081938E2F861B8117A0F280913901811195
:1052A00024C085EF8093350187EF8093360186EF28
:1052B0008093370186EC8093380185E0E7E5F1E0E3
:1052C000DE01119601900D928A95E1F78981809314
:1052D00030018A81809331018B81809332018C81EE
:1052E000809333018D81809334018091390194E062
:1052F000811190E09093140384E0891B8093130341
:1053000005E311E0A9E3EA2EA1E0FA2EF80181916C
:105310008F018F3F11F00E94EB09E016F106B1F703
:1053200000E311E0D8018D918D018F3F11F00E94B3
:10533000EB09B1E005331B07A9F788E0EBE2F3E0E6
:10534000DF01282F1D922A95E9F7EBE0F3E0DF015A
:105350001D928A95E9F70E947713811102C00E947D
:10536000141582E090E00E945A338093150384E084
:1053700090E00E94623390938E0480938D040E948B
:105380009F1EBFEFE6E7F1E0B150E040F040E1F7EB
:1053900000C000000E949F1E80912B0380FF08C068
:1053A0006FEF7FEF90E080E00E9496330E9420082C
:1053B00083E090E00E945A330E94AF0C0E94771362
:1053C000811104C00E9414150E94631381E0809330
:1053D0004B0348E050E068E170E08CE493E00E9409
:1053E0004A3310924B0380914C038C7F11F40E943E
:1053F00063130E94180F882309F4BEC082E08093D3
:10540000750480E88093F9040E9404306BE070E03A
:105410008BED91E00E9477128823E9F18091750469
:1054200065E070E081FDAAC086ED91E00E947712F0
:10543000882389F16DE070E084EC91E00E9477129E
:10544000882349F10E943108605A75418F4F9F4F60
:1054500060937704709378048093790490937A042E
:10546000ECEFF4E080E092E0DF019C011D9221501E
:105470003040E1F7F0930307E09302078FEF9FEFCF
:105480009093FB048093FA0481E080937E048093E0
:105490007B04109276040E94180F811102C00E94B2
:1054A0004D318AE391E0909385048093840499249C
:1054B0009394E3E34E2EE3E05E2EF4E0AF2EB12CA6
:1054C0008091B50470E4F72E00E112E1853009F413
:1054D0009EC00E949F1E06E113E06BE2E62E63E091
:1054E000F62ED701F80191918D9173E0EE31F70717
:1054F00009F49BC09817B9F30E94180F282E5BE29D
:10550000C52E53E0D52E712CD6016D906D01F8019A
:1055100081918F01861539F1862589AB812C332441
:10552000339489A98321B9F02220A9F08BA67CA607
:105530000E9491169EA78DA7F1E0FFA791E0862D0E
:10554000832109F490E098AB4BA55CA56DA57EA5E1
:105550008FA50E9422268394330C25E08212E1CF8E
:10556000F80131976082739438E07312CDCF0E94B6
:105570008310882483945EC080E041CF81ED91E068
:1055800055CF8091B504843009F433C00E94EF12E6
:1055900080914A03811105C00E94700F80E00E9433
:1055A000810931E030934A030E94A11210928804CD
:1055B00068E170E00FB6F894A895609360000FBEA4
:1055C000F092600083B7817F846083BF83B781607E
:1055D00083BF7894889583B78E7F83BF0FB6F89486
:1055E000A8958091600088618093600010926000AF
:1055F0000FBE8091B404882351F00E949F1EEBE2FD
:10560000F3E081918111D5C44E165F06D1F78091E8
:10561000B504853009F4B5CF109290040E9461184A
:105620000E943B0F10924A0354CF981365CF0E94FB
:105630000E28812C0E94180F882321F1C09080042D
:10564000D0908104C114D104E9F080911E0390919F
:105650001F030E9482168C01C6010E946C118017E4
:10566000910780F4809180044DE0849FC001112453
:10567000FC01E051FC4F208122FD04C084519C4F6D
:105680000E94020E0E94EF12712C612C8091250362
:10569000781650F0662009F486C00E949D100E9482
:1056A0009D160E94BC1283C0072D10E0F801ED5B2F
:1056B000FE4F8081E82FE295EF70F0E0E0A1F0E08E
:1056C0008F7002C0F595E7958A95E2F7E170D801F1
:1056D000AE5BBE4F2C91A22FA295AF70B0E090961A
:1056E0008C9190E02F7002C0959587952A95E2F7EE
:1056F00080FD51C080E08E2BD801AA5DBC4FEC919B
:105700009E2F9370891709F444C0EE0FEE0FE82B1B
:10571000EC93C0902403C70CEF70F0E0E156FE4F0D
:105720000E5D1C4F8081D8019C91890F8C93D12CE8
:10573000843084F0EC2DF0E0E05EFC4F80818F5FE0
:1057400080830E94180FD82E882339F160E08C2DB9
:105750000E94301EF80180818D3F84F4EC2DF0E032
:10576000E05EFC4F8081815080830E94180FD82E0C
:105770008823B1F061E08C2D0E94301ED8018C91FD
:10578000082E000C990BB5010E940333F8018083A9
:105790006D2873947BCF82E0AECFDD24D394DACF33
:1057A000DD24D394EBCF0E949D1681107ACF86E042
:1057B000ECE3F3E08E010F5F1F4FD80101900D92D3
:1057C0008A95E1F710923E0310923F031092400336
:1057D000109241038B819C81892B09F44AC08091EE
:1057E0003A0390913B030E9482169C0190913503ED
:1057F000992309F404C425313105D8F19F3F19F0EC
:105800009F5F90933503DB80DD2059F00E94C9092A
:105810009FEF1D140CF491E0899F802D112480933B
:105820003E03DC80DD2059F00E94C9099FEF1D1462
:105830000CF491E0899F802D112480933F033091D7
:105840003E033323B1F020913F03222391F045EB37
:105850003403C0011124992309F4C0C090933E037E
:1058600065EB260390011124332309F4BAC0309369
:105870003F038D819E81892B09F44AC080913803B2
:10588000909139030E9482169C01909136039923CE
:1058900009F4B0C321353105D8F19F3F19F09F5F5E
:1058A00090933603DD80DD2059F00E94A7099FEF19
:1058B0001D140CF491E0899F802D112480934003E6
:1058C000DE80DD2059F00E94A7099FEF1D140CF423
:1058D00091E0899F802D11248093410330914003F2
:1058E0003323B1F020914103222391F075EB37036C
:1058F000C0011124992309F477C09093400345EB2C
:10590000240390011124332309F471C0309341031F
:1059100046E050E0B8018CE393E00E942D33892BE0
:1059200061F480913E0390913F03892B9091400355
:10593000892B90914103892B11F00E943A1886E03F
:10594000F801ACE3B3E001900D928A95E1F70E9473
:105950003B0F90912803891721F0809328030E9420
:1059600031088091B504843009F0AACD83E080939A
:10597000E9008091E80082FFA3CD8091E80090E0EB
:1059800085FF09C00E94E20640E2642E712C680186
:105990008823C9F191E08091E8008B778093E8003B
:1059A000992309F48DCDC0903303D09034038981BD
:1059B000C114D104B1F18E3F09F0BCC08A8183309B
:1059C00020F08550833008F0B5C0EA81EE3008F051
:1059D000B1C0F0E0EF51FC4C0C94173390923E03B1
:1059E0003FCF90923F0345CF9092400388CF909253
:1059F00041038ECF8091F100D6018D936D01B1E00E
:105A00006B1A710839F28091E80085FDF3CF80911F
:105A1000E8008B778093E8000E94E206882399F3E0
:105A2000B9CF893009F429C128F5843009F4AAC016
:105A300058F4823009F46DC008F095C0813009F443
:105A400064C08FEF898376C0863009F4B1C008F452
:105A5000A4C0873009F4AFC0883099F78A818138B3
:105A600009F4F6C008F0E8C0803809F063C08091FE
:105A70004F034DC0803109F431C1D8F58D3009F4A0
:105A8000FFC028F48C30E9F680E18A8353C08E3061
:105A900009F4FAC08F30A9F680915101909152011A
:105AA000892B09F447C0CC80D12C3DE1C316D10429
:105AB00008F040C0EA80FB80FE24EF24FE24380179
:105AC000CE0CDF1CC7018F579E4FCE14DF0491F11F
:105AD0004FE7E41642E0F40628F4D30114966C91E3
