:100000000C94E6030C942D040C942D040C942D04F4
:100010000C942D040C942D040C942D040C942D049C
:100020000C942D040C942D040C9486320C945A33A9
:100030000C94062D0C942D040C942D040C942D047A
:100040000C942D040C942D040C942D040C942D046C
:100050000C942D040C945D2D0C942D040C942D0403
:100060000C942D040C942D040C942D040C942D044C
:100070000C942D040C942D040C942D040C942D043C
:100080000C942D040C942D040C942D040C942D042C
:100090000C942D040C942D040C942D040C942D041C
:1000A0000C942D040C942D040C942D04A8001E0017
:1000B0001F0020002100220023002400250026002C
:1000C00027002D002E002A002A00290014001A0003
:1000D0000800150017001C0018000C001200130087
:1000E0002F00300031004C002B00390004001600B6
:1000F000070009000A000B000D000E000F0033007E
:10010000340028004B00E10031001D001B000600F8
:100110001900050011001000360037003800E50016
:1001200052004E000000E000E300E2002C002C0032
:100130002C000000E6000151E300500051004F0088
:100140004D0001000100010001000100010001005B
:100150000100010001000100010001000100010097
:100160000100010001000100010001000100010087
:10017000010001000100010001000100005C01001C
:100180000100010001000100010001000100010067
:100190000100010001000100010001000100010057
:1001A0000100010001000100010001000100010047
:1001B0000100010001000100010000000100010038
:1001C0000100010001000100000001000100010028
:1001D0000100010001000100010001000100010017
:1001E0000100010001000100010001000100010007
:1001F00001000100010001000100010001000100F7
:1002000001000100010001000100010001000100E6
:1002100001000100010001000100010001000100D6
:1002200001000100010001000100010001000100C6
:1002300001000100010001000100010001000100B6
:1002400001000100010001000100010001000100A6
:100250000000010001000100010001000100000098
:100260000100010001000100010001000100010086
:100270000100010001000100010001000100010076
:100280000100010001000100010001000100010066
:100290000100010001000100010001000100010056
:1002A0000100010001000100010001000100010046
:1002B0000100010001000100010001000100010036
:1002C0000100010001000100010001000100010026
:1002D0000100010001000100010001000100010016
:1002E0000100010001000000010001000100010007
:1002F00001000100000001000100010001000100F7
:100300000100010000000000000000002A2B28006E
:1003100000000000000000000000000000000029B4
:10032000000000002C1E3420212224342627252EF4
:10033000362D3738271E1F2021222324252633332C
:10034000362E37381F0405060708090A0B0C0D0E58
:100350000F101112131415161718191A1B1C1D2F24
:100360003130232D350405060708090A0B0C0D0E44
:100370000F101112131415161718191A1B1C1D2F04
:100380003130354C0000000000000000000000008B
:10039000000000000000000000000000000000005D
:1003A00000000000000000007E0F00D4FFFFFFC728
:1003B00000000078FD377A585A000004E6D6B446AB
:1003C0000200210116000000742FE5A3E0043501AE
:1003D0006D5D003D888AC6942FC2C42299E96F35AD
:1003E000A18BD32E9093C5C75AB87433EC123B4FF0
:1003F00088A18DA487287DD35F2685F89528FED611
:10040000885D4292C84BBB8E7B3AFD6D183631A198
:10041000004BF31E3335A8F1EAD2D5C9DB0F7E407D
:10042000506D7BE6E4B15E0F791E882EC19110C13C
:1004300046E23DB6BCD7569666D5B6FE4B6CCC337D
:10044000F8C3AF2936442408643C29CD80D605235F
:1004500015E66AB28894C49B3F6C409159339D0560
:100460006781E5FB6515C1C4CB7DEAA5ED762FD983
:10047000984604F6B9FE59C1759D71F483F5FD588F
:10048000A26272770C392069A82D452209666EF99F
:10049000AF163817BA7F13707E94E80B6FCC5A678B
:1004A0007424508A039B457803B3F174F7A704F1D1
:1004B000C7E79684F172873350BD64DDB615B03B53
:1004C000D17571865FA435212FF16AD83EFAE0EC30
:1004D000416E5791193F08C04595956E0C4C2058B8
:1004E0009868BC0508E9F2B40177801990027CDBBA
:1004F000E5B20A164434E059ACD2F0F10AFA7C7243
:10050000AAE6E08A4A65A69CA61E848654FD7A1453
:10051000686AF076CDCDB5F7E373B37374F78CA04A
:10052000BB6049E97A74437AFA0AFE7EBF854B02C2
:100530008635C35D9771C8DFDA14AEB07EDC7971A1
:1005400000000000412CD2F7CA960F4D000189032C
:10055000B6080000E3AB408BB1C467FB02000000AB
:100560000004595AAA00A90050004F0001000100E0
:100570000100010001000100BD03000002000200B3
:10058000B903000003000100BE03000004000200E4
:10059000A3030E1605000100BF03000006000200C1
:1005A000A503000007000200BB03000008000100D3
:1005B000C003000009000200A703E9150A000200B9
:1005C000A903E9150B000200AB03E9150C000200BA
:1005D000AD03E9150D000200AF03E9150E0002009E
:1005E000B103E9150F000200B303E9151000020082
:1005F000B503E91511000200B703E9151200020066
:10060000C103000013000200C30300001C037600B6
:10061000690061006C003A00660036003400630037
:1006200032006200330063000000380344006900B8
:1006300073006100720072006100790020002800E0
:100640005300740061006700670065007200650078
:10065000640020004C00610079006F007500740098
:1006600029000000120353006E00650061006B005A
:1006700062006F00780000000403090409025B00B7
:10068000030100A0FA09040000010301010009218F
:10069000110100012240000705810308000A090436
:1006A00001000203000000092111010001222200C3
:1006B0000705820320000107050303200001090448
:1006C0000200010300000009211101000122810044
:1006D0000705840320000A120110010000000842EF
:1006E0005302000100010203010660FF0961A1013C
:1006F0000962150026FF009520750881020963151F
:100700000026FF00952075089102C005010902A18D
:100710000185020901A10005091901290515002516
:100720000195057501810295017503810105010996
:100730003009311581257F95027508810609381524
:1007400081257F950175088106050C0A38021581FF
:10075000257F950175088106C0C005010980A101AA
:10076000850319012AB700150126B70095017510F8
:100770008100C0050C0901A101850419012AA0020C
:10078000150126A002950175108100C0050109061A
:10079000A101050719E029E7150025019508750154
:1007A00081029501750881010507190029FF1500CF
:1007B00026FF009506750881000508190129059591
:1007C0000575019102950175039101C011241FBEA9
:1007D000CFEFDAE0DEBFCDBF04B603FE27C08091C5
:1007E000D6039091D703A091D803B091D903873055
:1007F000904BA740B04BD1F41092D6031092D70380
:100800001092D8031092D90314BE84B7877F84BF97
:100810000FB6F894A895809160008861809360007D
:10082000109260000FBEE0E0F8E3099511E0A0E04F
:10083000B1E0E8EDFBE602C005900D92AA3BB107DE
:10084000D9F723E0AAEBB1E001C01D92A63DB207A3
:10085000E1F70E94402F0C94B4350C940000CF9324
:10086000DF939C013A9521153F4168F5EC01CC27B7
:10087000D170DC01AA27B270AC01442754709C01EE
:100880002227387094FF11C080E1CD2B09F480E05D
:10089000AB2B09F08062452B09F08064232B09F013
:1008A0008068FB01DF91CF91099481E0CD2B09F4A1
:1008B00080E0AB2B09F08260452B09F08460232B8C
:1008C00081F38860EECFDF91CF910895CF93DF93CE
:1008D000EC01805E9109089720F06DEC70E22097A2
:1008E00011F46FEB70E2CE010E942F048C2FDF9188
:1008F000CF910C94B41FCF93DF93EC010E9446205C
:10090000CE01805E9109089720F064ED70E2209797
:1009100011F466EC70E2CE01DF91CF910C942F04BC
:1009200081E0089581E008950C94920408950C9458
:1009300096041F93CF93DF9300D000D00F92CDB7D2
:10094000DEB749835A836B833091200289819A8173
:1009500031111DC06623B9F02223A9F00E94C329DA
:10096000182F682F89819A810E94662969817A816E
:10097000812F0F900F900F900F900F90DF91CF91DC
:100980001F910C94D2140E949629182FEFCF0E9429
:10099000C32969817A81EDCFFC01262F40815181E5
:1009A0006281738184810C949904CF93DF93EC016D
:1009B00060E00E94CC04BE01DF91CF910C949704BB
:1009C0008F929F92AF92BF92CF92DF92EF92FF925F
:1009D0000F931F936B017C0181E090E0A0E0B0E0F9
:1009E0004C015D0104C0880C991CAA1CBB1C4A95D3
:1009F000D2F7B501A4014C015D0104C0880C991C1B
:100A0000AA1CBB1C2A95D2F7482959296A297B2997
:100A100004C0880F991FAA1FBB1F0A95D2F78A012D
:100A20009B010C211D212E213F21041715072607AC
:100A3000370789F48C299D29AE29BF29BC01CD0136
:100A40001F910F91FF90EF90DF90CF90BF90AF90EC
:100A50009F908F90089580959095A095B0958C214A
:100A60009D21AE21BF21EACF0F93382F262F609111
:100A70008D0270918E0280918F0290919002042FCE
:100A8000432F0E94E0040F910C94A4280E94DD08DB
:100A90000E94BF060C9402090E94281C0E94B119F2
:100AA0000E94E61C0C94050908950E94F1200E9402
:100AB00054052FEF84E39CE0215080409040E1F703
:100AC00000C000000C94812D0F931F93CF93DF93F0
:100AD000EC018B010E94861BB801CE010E94970D8C
:100AE000882309F44FC0B801CE010E9494048823E2
:100AF00009F448C0B801CE010E94CE1B882309F436
:100B000041C0B801CE010E94DC198823D9F1B80197
:100B1000CE010E94491D8823A9F1B801CE010E948F
:100B2000C717882379F1B801CE010E9419188823CC
:100B300049F1B801CE010E943C19882319F1F8014E
:100B40008281882361F0CA35FDE5DF0721F170F469
:100B5000C115ECE5DE07A1F0CE3DDC45C9F0C801CA
:100B6000DF91CF911F910F910C949004CB358DE5BF
:100B7000D807A1F0CC35DD4591F70E94A12AEFCF2F
:100B80000E94550580E0DF91CF911F910F9108954C
:100B90000E94592CF7CF0E94AA2AE1CF0E94AD2AC9
:100BA000DECFCF93DF93EC0161E00E94CC04BE0165
:100BB000DF91CF910C946405DF92EF92FF920F9337
:100BC0001F93CF93DF93E82FF0E0EC5FFC4FD490BE
:100BD000282F26952695269530E0F901EC55FC4FF7
:100BE0000491877010E0082E02C0159507950A94AD
:100BF000E2F701701127F901EC56FC4FE490F12C5B
:100C0000082E02C0F594E7940A94E2F791E0E922F5
:100C1000FF24F901EC57FC4FC491D0E002C0D595F8
:100C2000C7958A95E2F7C170DD270115110519F006
:100C300081EE0E94B41FE114F10419F086EE0E94C7
:100C4000B41F8D2D0E94B320EF2819F086EE0E946C
:100C50004620012B19F081EE0E944620CD2B51F049
:100C60008CE2DF91CF911F910F91FF90EF90DF9079
:100C70000C94B320DF91CF911F910F91FF90EF90D3
:100C8000DF900895EF92FF920F931F93CF93DF931E
:100C9000EC01162F0AE08881882309F454C08130C2
:100CA00009F04EC08981813099F47E0122E0E20E84
:100CB000F11C8A810E94B320E7012196812F815087
:100CC00050F3EFE9FFE03197F1F700C00000F7CFF4
:100CD000823041F47E0182E0E80EF11C8A810E949C
:100CE000B41FEACF833041F47E01E2E0EE0EF11C46
:100CF0008A810E944620E0CF843011F02196DDCF1A
:100D00002A81229690E080E0AE014F5F5F4F205332
:100D1000330B2A30310548F0019778F2EFE9FFE014
:100D20003197F1F700C00000F7CF089FB001099F8D
:100D3000700D1124C901860F971F2981EA01E4CFA4
:100D40000E94DC05BACFDF91CF911F910F91FF90E8
:100D5000EF90089560E00C94420608950C94AD065F
:100D600081E00895CF93C82F0E94B006882319F020
:100D7000C0FF03C0299ACF9108952998FCCF219AEA
:100D800029980895CF93C82F0E94AE068C2FCF913B
:100D90000C94B20690E080E008950895FC01EE0FF7
:100DA000FF1FEC54FC4F859194910895CF93DF93EE
:100DB0000E94D2140E94EB07EC01811520E59207F6
:100DC00008F042C0811530E4930708F0BDC0883EAA
:100DD000910528F5803E910508F09DC0883A91055F
:100DE00088F4853A910508F08FC08130910509F4A7
:100DF00092C0009709F48FC0049708F08CC0D0E02F
:100E0000C0E089C08F3B910508F489C0805C9109DE
:100E1000C03CD105A0F30E94CE06EC017CC0811538
:100E2000904250F4C11581E0D80708F074C0C03F6B
:100E3000D10528F3D0656FC0C11590E3D90708F03C
:100E400079C0CE019F70E7CF811525E5920758F54F
:100E5000811534E5930708F0A6C0811542E5940793
:100E600050F4C11581E5D80708F471C0DC2FCC27F8
:100E7000C16FD06A50C0982F969596959E012370A9
:100E80003327C115D34508F07FC0C1E0D0E002C0D0
:100E9000CC0FDD1F2A95E2F720E2929FC0011124BA
:100EA000C82BD92B6FC0C11589E5D807A8F4C11587
:100EB00098E5D90708F07CC0C11526E5D20708F0EF
:100EC0009ECF8C2F0E948208C82FD0E0DC2FCC2729
:100ED000CC27DF71D0621FC0C1153AE5D30708F4F3
:100EE0006CC0CE0190568115904208F088CF8D2FAE
:100EF0008F710E94820890E0982F882788279F7121
:100F00009C012C2BE901E6CFC55AD0E0CE5ADE4F2A
:100F1000C881D0E0D064CE01DF91CF910895C85A46
:100F2000D0E0CC0FDD1FCC5DDE4F0990D881C02D05
:100F3000D464F1CFCE019927D3FF03C0EC01D86C64
:100F4000EACFEC01D06CE7CFDF70D06AE4CFCE01FE
:100F5000E4E096958795EA95E1F783702C2F269526
:100F60002695237090E2299F90011124382B8C2F15
:100F70008370C1E0D0E002C0CC0FDD1F8A95E2F79C
:100F8000C22BD32BDC68C7CFC1E0D0E002C0CC0FAE
:100F9000DD1F2A95E2F730E2939FC0011124C82B90
:100FA000D92BDA68B8CFD82FCC27C46FD06AB3CF8B
:100FB000DC2FCC27C06FD06AAECF8C2F8F700E94F1
:100FC000820834E0D695C7953A95E1F7CF709C2F0B
:100FD000EC01D069A0CF82389105B1F1B0F4813332
:100FE000910509F475C048F48932910509F469C086
:100FF0008A32910509F473C008958533910509F487
:1010000059C08933910501F10895833E9105A9F1F5
:1010100038F4803E9105F9F0823E910549F108953A
:10102000863E9105A9F1873E9105C9F1843E91055F
:1010300019F52091B40221FF1FC08091B30284FDF5
:1010400014C087EE90E008952091B3022370A1F0C0
:1010500080EE90E008952091B30220FD47C03091CA
:10106000B40230FF09C024FF44C090E080E004C017
:101070002091B30222FDF7CF08952091B30222FD03
:101080003BC03091B40230FDE3CF24FFF5CFEDCF6C
:101090002091B30223FFF0CF24FDE7CFD2CF2091E0
:1010A000B30223FD2CC03091B40231FFEECF84EEA9
:1010B00090E008952091B30225FFDECF89E290E011
:1010C00008952091B30225FFD7CF85E390E00895DE
:1010D0002091B30226FFD0CF8AE290E008952091BC
:1010E000B30226FFC9CF81E390E0089589E390E041
:1010F000089583EE90E0089582EE90E0089586EEE4
:1011000090E008959091B30292FF06C0282F2871B5
:101110002830F9F4877F846093FF06C0282F287158
:101120002831F1F4877E84612091B40220FF06C04B
:10113000382F38713830D9F4877F816021FF06C09D
:10114000282F28712831D1F4877E816194FD877E14
:101150000895282F24712430F9F68B7F8860DCCF26
:10116000282F2471243101F78B7E8861DDCF382F41
:101170003171313019F78E7F8860E0CF282F2171CF
:10118000213121F78E7E8861E1CF0C94710D0E9490
:101190007E098FE39CE90197F1F700C000000E94EF
:1011A0007E0981E00E94070980FF04C00E94C508F3
:1011B0000C94812D08950C94C7080E94B42B8111C2
:1011C00002C00E94592C0E94BF2B8093A7020E944C
:1011D000C72B9093B4028093B3020E94DB080E9455
:1011E000C32B682F70E090E080E00E946828609137
:1011F0008D0270918E0280918F02909190020C94DA
:10120000A22808950C94010908950C940409E82F6C
:10121000F0E0EE0FFF1FE154FD4F808191810895B2
:10122000089580EA8A95F1F7089500C008950C9416
:101230001109F894E82FE295EF70F0E031A1282F22
:101240002F7081E090E001C0880F2A95EAF7982F6F
:101250009095932391A392A1892B82A378940895CA
:101260000F931F93CF93DF9387E30E94190980E9BF
:101270000E94190981E90E94190982E90E9419094D
:1012800083E90E941909C5E5D1E004E611E08991DE
:101290000E9419090C171D07D1F71092B60210927F
:1012A000B5021092C0021092BF021092B8021092C2
:1012B000B7021092C2021092C1021092BA021092AA
:1012C000B9021092C4021092C3021092BC02109292
:1012D000BB021092C6021092C5021092BE0210927A
:1012E000BD021092C8021092C70285E00E94FE095A
:1012F000DF91CF911F910F910C944605AF92BF9251
:10130000DF92EF92FF920F931F93CF93DF93C4E688
:10131000D1E005EB12E0D12CEE24E394F12C89917D
:10132000F894E82FE295EF70F0E021A18F70A7010B
:1013300002C0440F551F8A95E2F7CA01922F982BDD
:1013400091A392A18095892382A378940E94150984
:10135000E5E5F1E030E020E0B12CA12C4191A42F93
:10136000A295AF70B0E090968C9190E04F7002C063
:10137000959587954A95E2F780FD3BC0C701022EFF
:1013800002C0880F991F0A94E2F7A82AB92A2F5F92
:101390003F4F2F30310511F7FE01319780810E94B8
:1013A00019090E941709F80180819181A816B906D0
:1013B00019F1B182A08281E0D82A0E5F1F4FF1E0BF
:1013C000C936DF0709F0ABCF2D2D45E06FEB72E09A
:1013D00085EB92E00E94FF090E944C058D2DDF9164
:1013E000CF911F910F91FF90EF90DF90BF90AF9042
:1013F000089590E080E0C9CF80E0DECF0895FF92AD
:101400000F931F93CF93DF93F82E092F162FD72F0B
:10141000C42F222349F081E08093BE010E94362D23
:101420009093BD018093BC018091BE018823A1F0FF
:101430008091BC019091BD010E944E2D069760F0F5
:10144000EF2DF02FA12FBD2F90E080E0D0E08C1782
:101450009D0744F01092BE01DF91CF911F910F9133
:10146000FF900895219131912D933D930196EFCFF7
:101470008091C5016091AB037091AC0380FF16C0F1
:1014800020910501269FC001279F900D1124BC01CA
:1014900076956795769567956038710508F043C035
:1014A0006115710509F441C0862F089581FF0BC0B5
:1014B00020910501269FC001279F900D1124BC019A
:1014C00076956795E9CF82FF09C0809105019B0160
:1014D000829FB001839F700D1124DECF2091C40143
:1014E0002223D1F29091040180910501482F50E010
:1014F000291748F0CB01849FB001859F700D949F00
:10150000700D1124C9CF289F90011124269FA0019E
:10151000279F500D369F500D1124692F70E0CA018E
:101520000E940C35B9CF8FE7089581E0089580912E
:10153000C50180FF0CC06091010170E07595679551
:10154000759567956115710549F1862F089581FF9D
:1015500006C06091010170E075956795F3CF6091C9
:10156000010182FD0BC09091C3019923A1F060910C
:10157000000180910101961738F0682F70E0603803
:10158000710500F38FE70895899FC001112470E071
:101590000E942035F4CF61E070E0D7CF81E008955C
:1015A000803F31F40E94380A81958093C9010895E3
:1015B000813F19F40E94380AF8CF823F31F40E942B
:1015C000380A81958093C8010895833F19F40E94D9
:1015D000380AF8CF893F29F40E94970A8093CA01FC
:1015E00008958A3F21F40E94970A8195F7CF8B3F97
:1015F00031F40E94970A81958093CB0108958C3F26
:1016000019F40E94970AF8CF843F31F48091C70102
:1016100081608093C7010895853F21F48091C701BF
:101620008260F7CF863F21F48091C7018460F1CFBB
:10163000873F21F48091C7018860EBCF883F21F478
:101640008091C7018061E5CF8D3F31F48091C50164
:1016500081608093C50108958E3F21F48091C5017A
:101660008260F7CF8F3FB9F78091C5018460F1CFD9
:101670009091C801803F59F48091C90187FF0DC046
:101680001092C90191110BC01092C40108C0813F92
:1016900081F48091C90118169CF3992381F08091FF
:1016A000CA019091CB01892B09F064C01092C3014B
:1016B0000895823F49F497FFF0CF1092C8018091BE
:1016C000C9018111ECCFE0CF833F19F41916ACF3B7
:1016D000E4CF2091CA01893F29F41216F4F6109242
:1016E000CA01DBCF8A3F19F427FFD7CFF8CF20916B
:1016F000CB018B3F29F427FFD0CF1092CB01CDCF68
:101700008C3F19F41216CCF3C8CF843F31F480918A
:10171000C7018E7F8093C701C0CF853F21F48091A0
:10172000C7018D7FF7CF863F21F48091C7018B7F62
:10173000F1CF873F21F48091C701877FEBCF883FAE
:1017400021F48091C7018F7EE5CF8D3F31F48091E8
:10175000C5018E7F8093C501A0CF8E3F21F480917B
:10176000C5018D7FF7CF8F3F09F097CF8091C501DD
:101770008B7FF0CF08950E94362D9C019091C80177
:101780008091C901982B21F03093C2012093C101AF
:101790009091CA018091CB01982B21F03093C00128
:1017A0002093BF0186EC91E00C94071EEF92FF920C
:1017B0000F931F93CF93DF9300D000D000D0CDB70D
:1017C000DEB786E0E6ECF1E0DE01119601900D92C5
:1017D0008A95E1F7E090C801F090C9010091CA0133
:1017E0001091CB011092C8011092C9011092CA0148
:1017F0001092CB018E2D8F2991F08091C101909193
:10180000C2010E944E2DAC019091C401992309F4AC
:101810003FC0809106018417150608F447C0802F49
:10182000812B91F08091BF019091C0010E944E2DBB
:10183000AC019091C301992309F477C08091020112
:101840008417150608F47FC08091C8019091C901E2
:10185000892B9091CA01892B9091CB01892B11F092
:101860000E94BB0B86E0FE013196A6ECB1E0019030
:101870000D928A95E1F726960FB6F894DEBF0FBE5B
:10188000CDBFDF91CF911F910F91FF90EF90089501
:10189000209107018AE0289F900111242417350721
:1018A00008F0BDCF9F5F9093C40102C09F3FD1F766
:1018B000EE2059F00E94380A9FEF1E140CF491E0BC
:1018C000899F802D11248093C801FF2059F00E9428
:1018D000380A9FEF1F140CF491E0899F802D11248A
:1018E0008093C9013091C801332309F498CF209126
:1018F000C901222309F493CF45EB3403C00111241D
:10190000992359F09093C80145EB240390011124C9
:10191000332339F03093C90182CF81E08093C8012D
:10192000F3CF81E08093C9017ACF209103018AE04F
:10193000289F900111242417350708F085CF9F5F59
:101940009093C30102C09F3FD1F7002359F00E943A
:10195000970A9FEF10160CF491E0899F802D1124B7
:101960008093CA01112359F00E94970A9FEF111624
:101970000CF491E0899F802D11248093CB0130914C
:10198000CA01332309F460CF2091CB01222309F44B
:101990005BCF45EB3403C0011124992359F0909398
:1019A000CA0145EB240390011124332339F030930D
:1019B000CB014ACF81E08093CA01F3CF81E08093CD
:1019C000CB0142CF86E0E6ECF1E0DF011D928A9583
:1019D000E9F71092C4011092C3011092C501089555
:1019E00023982B9A22982A9A83B183FB882780F91F
:1019F0001A9905C090E0892B8093CE01089592E05A
:101A0000FACFE091CE01EE0FEE0FE093CE0143B19D
:101A100043FB882780F943B142FB222720F942FF8C
:101A200002C022E030E0822BE82BE093CE01EF7081
:101A3000F0E0E759FE4F80819091CD01890F8093AE
:101A4000CD011816DCF48091CC018F5F8093CC011E
:101A500060E080E00E94381281E09091CD0197FF14
:101A60000AC08091CC0181508093CC0161E080E07C
:101A70000E94381281E01092CD01089580E0EDCFF0
:101A800083E290E00E946A358B3489F484E290E02E
:101A90000E946A35893359F485E290E00E946A35E4
:101AA00091E0893809F090E0892F8170089580E0F5
:101AB000FCCFCF93C82F6FEF81116BE483E290E0EE
:101AC0000E9478356FEFC11169E384E290E00E94D3
:101AD00078356FEFC11169E885E290E0CF910C9401
:101AE000783580E00E94590D0C94AE2B089586E263
:101AF00090E00E946A35682F70E090E080E00895E1
:101B000086E290E00C9478350E94760D0E94400D9C
:101B100081110CC060E070E0CB010E94800D0E943A
:101B2000D7130E94431581E00C94590D0895CF936B
:101B3000FB01C281CC2309F19C0122513F45203198
:101B4000310520F582510E945315C0E08C2FCF91B2
:101B5000089581E00E94CA2843E062E081E00E948B
:101B60003405F3CF81E00E94EB2843E062E081E09E
:101B70000E943405EBCF82E0F6CF8031FFE59F076E
:101B800089F381319F45B9F3C1E0E0CF8031EFE5C2
:101B90009E07F9F281319F45C9F682E0DBCF2FEF36
:101BA000FC0120830895EF92FF920F931F93CF9330
:101BB000DF93EC01062F88812091E3013091E4014D
:101BC000232B79F08E3F09F057C08981833020F0B4
:101BD0008550833008F050C0602FCE010E94CD1098
:101BE0004BC08C3009F4A1C0D0F4843009F484C017
:101BF00060F4823009F44AC008F071C08130C9F144
:101C0000602FCE010E94CF0D37C0863009F48AC004
:101C100008F47DC08A30A0F78FEF88832DC0803113
:101C200009F4A0C0D8F48E3009F48BC008F481C048
:101C30008091080190910901892BF1F06B8170E08E
:101C40006D317105C8F489819A81AE014C5F5F4F97
:101C50009827892798270E9419150EC0823109F408
:101C600087C008F482C0833109F493C08E3F41F6E7
:101C7000B3CF198289E08A83602FCE01DF91CF91A3
:101C80001F910F91FF90EF900C94352E8981823037
:101C900071F0833079F0813009F0B2CF0E94422D8B
:101CA0000E943A356A837B838C839D83E5CF0E94B3
:101CB000770DF6CF8091080190910901892BE1F20F
:101CC0007E0110E0812F0E940709F7019283838330
:101CD0001F5FF2E0EF0EF11C1530A1F7CDCF898127
:101CE000823009F08DCF6A817B818C819D810E9439
:101CF0003A350E94800DC0CF4B816A8189810E9454
:101D0000D0129827892798279D838C83B5CF2C8163
:101D10003D813227232732274B816A8189810E94A6
:101D2000F212AACF0E94D713A7CF0E94EE14898384
:101D3000A3CF0E94F0149827892798279A83898334
:101D40009BCF6B8170E06D31710508F095CF898173
:101D50009A81AE014C5F5F4F9827892798270E9490
:101D6000F3148ACF0E94431587CF0E94BE12DFCFA3
:101D70006B8170E06D31710508F07ECF89819A81A9
:101D8000AE014C5F5F4F9827892798270E947814EF
:101D900073CF6B8170E06D31710508F06DCF898173
:101DA0009A81AE014C5F5F4F9827892798270E9440
:101DB0009E1462CF8F929F92AF92BF92CF92DF928A
:101DC000EF92FF920F931F93CF93DF93CDB7DEB7C0
:101DD0002A970FB6F894DEBF0FBECDBF09EC12E014
:101DE000F12CE12C84E0C82E80E1D82E9EE2A92EB1
:101DF00090E1B92E2FE5822E2FE0922EF801D182AC
:101E0000C082B382A28295828482F58AE48ABE016E
:101E10006F5F7F4F8E2D0E948713892B29F4898550
:101E20009A85F801938B828BFFEFEF1AFF0A0A5E07
:101E30001F4F88E0E816F10409F72A960FB6F894C8
:101E4000DEBF0FBECDBFDF91CF911F910F91FF90ED
:101E5000EF90DF90CF90BF90AF909F908F900895BC
:101E6000CF93DF9300D000D00F92CDB7DEB7909321
:101E7000A2038093A103811520E2920748F40F90FA
:101E80000F900F900F900F90DF91CF910C947B04E7
:101E90008EEF89838A831B820E94362D8160782F82
:101EA0009D838C8349815A816B818D810F900F9026
:101EB0000F900F900F90DF91CF910C94581F0F93BC
:101EC0001F93CF93DF938C01EB016FEC71E08C2FAC
:101ED0000E948713892BA1F48091C1039091C203C2
:101EE000019798F4DD27C752DE4F8881F8011082F0
:101EF0001882833041F180F4813091F08230B9F062
:101F0000DF91CF911F910F910895EFE9FFE0319795
:101F1000F1F700C00000E4CF8430D1F0853081F7C4
:101F20008091CF019091D001009751F306C080912C
:101F3000D1019091D201009799F3DF91CF911F9138
:101F40000F910C94300F8091D3019091D401F3CF75
:101F50008091D5019091D601009779F72091CF011A
:101F60003091D0018091D1019091D201211531059C
:101F7000D9F2009711F7C901E0CFCF93DF9300D0DA
:101F800000D00F92CDB7DEB79093A2038093A10348
:101F9000811520E2920748F40F900F900F900F9058
:101FA0000F90DF91CF910C9466048EEF89838A8322
:101FB00081E08B830E94362D8160782F9D838C83F6
:101FC00049815A816B818D810F900F900F900F90F6
:101FD0000F90DF91CF910C94581FCF93DF93EC01BA
:101FE0000E94BD0F8091C1039091C203019728F414
:101FF000CE01DF91CF910C94300FEFE9FFE03197E4
:10200000F1F700C00000F2CF0F931F93CF93DF933F
:102010008C01862F6FEC71E00E948713892BC9F425
:10202000C091CF01D091D001209799F0F801808123
:10203000833069F4CE010E94ED0FCE010E94ED0FB6
:10204000CE01DF91CF911F910F910C94ED0F843051
:10205000B8F7DF91CF911F910F9108950F931F93C0
:10206000CF93DF938C01EB016FEC71E08C2F0E941A
:102070008713892B09F064C0FE01FF27D8018C91DA
:10208000E752FE4F8130D9F419969C911997992304
:1020900011F080830CC01A969C919923D1F382E0B1
:1020A00080838091D1019091D2010097D9F48091E1
:1020B000CF019091D001009709F442C013C0823043
:1020C000E9F519968C91199781112DC01A968C916A
:1020D00081110EC083E080838091D3019091D4015F
:1020E000009719F1DF91CF911F910F910C94BD0FC3
:1020F00084E080838091D5019091D601009791F77B
:102100008091CF019091D0010097F9F00E94ED0FDE
:102110008091D1019091D201009721F78091CF0158
:102120009091D001DFCF85E080838091CF019091A5
:10213000D001009729F00E94ED0FF0CF86E0808358
:10214000DF91CF911F910F9108958091D1019091CE
:10215000D201B1CF0E94DA0EE9E7F3E011821082DA
:1021600081E090E09683858382E090E09387828788
:1021700083E090E0908B878784E090E0958B848B60
:1021800085E090E0928F818F86E090E0978F868F38
:1021900087E090E094A383A30895CF92DF92FF920B
:1021A0000F931F93CF93DF93CDB7DEB72A970FB668
:1021B000F894DEBF0FBECDBF8C01603269F5DC0143
:1021C0001196EC911197EE3038F5F0E0EA54FA4CA4
:1021D0000C94343588E0ECE1F1E0DE0111960190D9
:1021E0000D928A95E1F780E2F80111928A95E9F75C
:1021F00084E0D8018C9311961C92119712961C9230
:10220000129713961C92139788E0FE01319614964C
:1022100001900D928A95E1F72A960FB6F894DEBFE9
:102220000FBECDBFDF91CF911F910F91FF90DF9037
:10223000CF90089580EBF801808381E08183128242
:102240001382EACF13968C911397682F70E0762F44
:10225000662712968C91860F972F911D092E000CE0
:10226000AA0BBB0B45E0880F991FAA1FBB1F4A95FD
:10227000D1F7AC01BD01405E5F4F6F4F7F4F4817F4
:1022800059076A077B0740F2803BE1E09E07A10502
:10229000B10510F6413BF1E05F076105710520F0E3
:1022A00040EB51E060E070E0481B590BBC016C54FE
:1022B0007C4FC8010E944135AFCF1296FC90129717
:1022C0001396DC9040E06D2D8F2D0E941A139827F5
:1022D00089279827F8019183808341E06D2D8F2D08
:1022E0000E941A13982789279827D80113969C9340
:1022F0008E93129791CFFC012581368132272327B7
:1023000032274481638182810E94451385CF40E258
:1023100050E06FEF70E00E94533580910801D801C2
:102320008C938091E30111968C9376CF81E090E0BD
:102330009093E4018093E30182E390E09093E201C3
:102340008093E1010E94362D67CF80910801F8014A
:1023500080838091E30181838091E10182835CCF5E
:1023600040E250E0BC0112968D919C910E9496161D
:1023700053CFBC016F5F7F4F4FE150E0FC01828182
:1023800093810E94C816D8018C9346CFBC016C5F24
:102390007F4F4CE150E0FC01828193810E94F01656
:1023A000F2CF0E94551638CFFC0182818230E1F1D4
:1023B000E0F4882389F1813009F02ECF13968C91B7
:1023C0002AE0F22EFE0131966F01DF01EF2D1D9202
:1023D000EA95E9F7B6010E948713D8018D93F601BB
:1023E00001900D92FA94E1F717CF833089F1843090
:1023F00009F012CF13968C919AE03496DE01119673
:1024000001900D929A95E1F7BE016F5F7F4F0E9498
:10241000C313F801808300CF80E21D928A95E9F70B
:1024200088E080838183F8CE13968C919AE034966D
:10243000DE01119601900D929A95E1F7BE016F5F52
:102440007F4F0E949B13F80180830E94DA0EE4CE36
:1024500013968C919AE0F92EFE0131966F01DF01FF
:10246000EF2D1D92EA95E9F7B6010E94AF13B5CFA3
:10247000AF92BF92CF92DF92EF92FF920F931F9392
:10248000CF93DF93B82EA62EC0908D02D0908E02EF
:10249000E0908F02F09090028091910290919202D0
:1024A000A0919302B0919402C82AD92AEA2AFB2A61
:1024B000CFE1D0E0D701C6010C2E04C0B695A79598
:1024C000979587950A94D2F780FF20C04A2D6B2DEF
:1024D0008C2F0E941A138C0181309105B9F00E9453
:1024E000BD0F8FE39CE90197F1F700C00000C80120
:1024F0000E94300F81E0DF91CF911F910F91FF90EB
:10250000EF90DF90CF90BF90AF900895219790F615
:102510004A2D6B2D80E00E941A13EC010E94BD0F22
:102520008FE39CE90197F1F700C00000CE01E0CFF6
:102530001F93CF93DF93CDB7DEB72A970FB6F894EA
:10254000DEBF0FBECDBF162FBE016F5F7F4F0E9453
:10255000AF13892B31F489859A85112361F00E948C
:10256000BD0F2A960FB6F894DEBF0FBECDBFDF9128
:10257000CF911F9108950E94300FF3CF84E008950A
:1025800050E0440F551F9EE1699F400D511D1124DD
:1025900096E9899F400D511D1124CA01879608951F
:1025A0000F931F93CF93DF938430C8F46530B8F452
:1025B0004F30A8F40E94C0128C010E946A35C82FC7
:1025C000D0E0DC2FCC27C80101960E946A359E011D
:1025D000282BC901DF91CF911F910F91089590E0B1
:1025E00080E0F8CF0F931F93CF93DF93E9018430FE
:1025F000E0F46530D0F44F30C0F421153C4531F49F
:102600002091080130910901232B79F00E94C0121A
:102610008C016D2F0E9478356C2FC8010196DF91D7
:10262000CF911F910F910C947835DF91CF911F912D
:102630000F9108950F931F93CF93DF93843010F57C
:10264000611120C04230F0F424E0829F8001112407
:1026500050E0440F551F040F151F01581D4FC801AE
:102660000E946A35C82FD0E0DC2FCC27C801019624
:102670000E946A359E01282BC901DF91CF911F91DD
:102680000F91089590E080E0F8CF0F931F93CF93C0
:10269000DF938901843028F5611123C0423008F5A9
:1026A00021153C4531F42091080130910901232B7B
:1026B000C1F094E0899FE001112450E0440F551FC0
:1026C000C40FD51FC158DD4F612FCE010E94783550
:1026D000602FCE010196DF91CF911F910F910C9445
:1026E0007835DF91CF911F910F9108958232910536
:1026F00020F481579D4F0C946A3580E00895823212
:10270000910520F481579D4F0C94783508959B01D5
:10271000883070F49AE0899FB00111246F547D4F86
:102720004AE050E0C9010E945A3590E080E00895E7
:102730008FEF9FEF08959B01883070F49AE0899F96
:10274000B00111246F547D4F4AE050E0C9010E944E
:102750009C3590E080E008958FEF9FEF08959B01F6
:10276000883070F49AE0899FB00111246F5F7C4F2C
:102770004AE050E0C9010E945A3590E080E0089597
:102780008FEF9FEF08959B01883070F49AE0899F46
:10279000B00111246F5F7C4F4AE050E0C9010E94F4
:1027A0009C3590E080E008958FEF9FEF08955F9251
:1027B0006F927F928F929F92AF92BF92CF92DF9251
:1027C000EF92FF920F931F93CF93DF93CDB7DEB7B6
:1027D00064970FB6F894DEBF0FBECDBFE09008013E
:1027E000F090090181E090E0909309018093080145
:1027F00084E6C82E85E0D82E9CEAA92E90E0B92E5A
:1028000010E0450100E015C0F30125913491452DFC
:10281000602F812F0E94F21282E0680E711C539487
:102820009FE05912F1CFEEE18E0E911C0F5F053043
:1028300019F03401512CE8CFF6012591349140E094
:1028400060E0812F0E944513F60132962591349164
:1028500041E060E0812F0E944513F4E0CF0ED11CCF
:102860001F5F86E9A80EB11C143009F0CACF0E9480
:1028700055161C861B861E861D86188A1F861A8A78
:10288000198A88EC90E09C8B8B8B10E0BE01655F11
:102890007F4F812F0E949B131F5F1830B9F7FE01F5
:1028A00031966F018AE011928A95E9F710E0B6013E
:1028B000812F0E94C3131F5F1830C9F7F0920901DE
:1028C000E092080164960FB6F894DEBF0FBECDBF4C
:1028D000DF91CF911F910F91FF90EF90DF90CF90FC
:1028E000BF90AF909F908F907F906F905F90089572
:1028F000EF92FF920F931F93CF93DF93EC018A0126
:102900007C01E60EF71ECE018796CE15DF0539F461
:10291000DF91CF911F910F91FF90EF900895C835EF
:1029200022E0D20740F40E946A35F80180830F5FED
:102930001F4F2196E8CFF8011082F9CFCF92DF9296
:10294000EF92FF920F931F93CF93DF938C016A0155
:102950008835924080F488E592E0801B910B8617C1
:10296000970748F07801E60EF71EE801CE0187963A
:10297000CE15DF0549F4DF91CF911F910F91FF90A4
:10298000EF90DF90CF900895C83522E0D20740F451
:10299000FE01E01BF10BEC0DFD1D60810E947835FE
:1029A0002196E4CF462F2091E3013091E401232BBF
:1029B00091F47E3F39F46E3F71F48091A1039091C0
:1029C000A2030895843038F4753028F46F3018F479
:1029D000672F0C94D01290E080E0089580E1089574
:1029E0008FEA90E00895EF92FF920F931F93CF9399
:1029F000DF93EC018A017C01E60EF71ECE018F5AAF
:102A00009C4FCE15DF0539F4DF91CF911F910F91C7
:102A1000FF90EF900895CF3AD10540F40E946A35B7
:102A2000F80180830F5F1F4F2196E8CFF8011082D5
:102A3000F9CFCF92DF92EF92FF920F931F93CF9334
:102A4000DF937C016A018C01060F171FEC01CE0198
:102A50008F5A9C4FC017D10749F4DF91CF911F9136
:102A60000F91FF90EF90DF90CF900895CF3AD1056E
:102A700040F4FE01EE19FF09EC0DFD1D60810E947E
:102A800078352196E4CFCF93DF93C1E5D3E060E0C2
:102A9000CE010E9478352196C11584E0D807B9F798
:102AA000DF91CF910895BF92CF92DF92EF92FF9284
:102AB0000F931F93CF93DF9300D000D0CDB7DEB735
:102AC000F82E2FE0281740F08FEF93E00E946A3530
:102AD00001E513E08823D1F00F900F900F900F9035
:102AE000DF91CF911F910F91FF90EF90DF90CF90EA
:102AF000BF900895011544E0140771F3C8010E94C6
:102B00006A35811101C0FA940F5F1F4FF110F2CFA7
:102B100019821A821B821C82BB24BA9478015FEF4F
:102B2000E51AF50AC8010E946A3589831A8288234A
:102B300099F2813009F047C0680182E0C80ED11CCB
:102B4000C7010E946A35E82E8A83882329F2C601CC
:102B50000E946A35F82E8FEF8E0D833068F468017D
:102B6000E3E0CE0ED11CFB82FF2021F0CE010196C6
:102B70000E94AA068601D2CFF4E0EF12FBCF6801D3
:102B800024E0C20ED11CC80103960E946A35FF20C2
:102B900009F4A2CF882309F49FCF8150990BB89EE6
:102BA0009001B99E300D11244F2D4150550BCA0193
:102BB000820F931F0197F0F2EFE9FFE03197F1F7F1
:102BC00000C00000F7CFCE0101960E94AA0667015F
:102BD000D1CFE3EAF3E0848195812AE030E0B901C6
:102BE0000E940C35609307018681809306018285DF
:102BF0008093050184858093040186859785B901BA
:102C00000E940C35609303018089809302018289C0
:102C10008093010184898093000108958091A3032A
:102C20009091A4030C941B1D0F931F93CF93DF93DC
:102C300003EA13E0D0E0C0E0CE010E947613F80171
:102C400061918F01861719F0CE010E947F132196A2
:102C5000C232D10589F7DF91CF911F910F9108956D
:102C60000F931F93CF93DF9303EA13E0D0E0C0E00C
:102C7000CE010E947613F80181938F012196C23212
:102C8000D105B1F7CAE7D5E0FE018591949100978F
:102C900011F0FC0109952896F6E0C231DF07A1F793
:102CA000DF91CF911F910F910895E3EAF3E0128E27
:102CB000138E8FEA90E09183808385E0848F88E88B
:102CC00093E1938382832CE231E03583248382E392
:102CD00090E09783868385E090E0918780878AE003
:102CE00090E09387828744E150E055874487378797
:102CF000268724E630E0318B208B28E030E0338BD0
:102D0000228B28E230E0358B248B28EC30E0378BA7
:102D1000268B318F208F158E978F868F80E590E0E0
:102D200091A380A30E9414160C943016EF92FF9288
:102D30000F931F93CF93DF937C01EB018A016FEF19
:102D400070E0CE010E94533524E735E0ACE0B6E0F8
:102D500090E080E0AC014E5F5F4F0417150788F0EC
:102D6000F90165917491E616F70630F48C0F9D1FFA
:102D7000FC0171836083CA01285F3F4FA217B3072C
:102D800049F7DF91CF911F910F91FF90EF90089538
:102D9000DC01CB0124E735E0F90165917491A617B8
:102DA000B70749F0285F3F4F66E02C303607A1F7A0
:102DB0008FEF9FEF0895B9016E5F7F4FFB01A591E3
:102DC000B4914A175B07A0F3FB0145915491F901B7
:102DD0003496659174910E944A3590E080E00895A0
:102DE000CF93DF93C4E7D5E0FE012591349182179C
:102DF000930741F0289626E0CC30D207A9F78FEF51
:102E00009FEF1DC0CE010296FC012591349142171F
:102E10005307A8F3FC0145915491FE013496859126
:102E200094910E944A350E941416FE0136968591AF
:102E30009491009711F0FC01099590E080E0DF91FA
:102E4000CF9108958091BB039091BC030895809128
:102E5000C003817008958091C003869581700895A4
:102E60008091C00382FB882780F908958091C00378
:102E700083FB882780F90895AF92BF92CF92DF92AB
:102E8000EF92FF920F931F93CF93DF937C015B012F
:102E9000C42FD22FFC0182818823F9F04093E701EF
:102EA0000E94362D9093E6018093E50180E28C0F1D
:102EB000883008F061C0C77081E001C0880FCA95F2
:102EC000EAF7DF91CF911F910F91FF90EF90DF9084
:102ED000CF90BF90AF900C94BF201091E7011413D6
:102EE00040C08091E5019091E6010E944E2D6C0159
:102EF000B701C5010E942217C816D90690F5C0E295
:102F0000CD0F1D17B9F080E2810F883040F41770A3
:102F100081E001C0880F1A95EAF70E94C620C830E8
:102F200048F481E09D2F977001C0880F9A95EAF7C9
:102F30000E94BF20802F0E94B320C830E8F4D770D1
:102F400081E001C0880FDA95EAF7DF91CF911F91F8
:102F50000F91FF90EF90DF90CF90BF90AF900C94C7
:102F6000C62080E28C0F883038F4C77081E001C041
:102F7000880FCA95EAF7E9CFDF91CF911F910F91A2
:102F8000FF90EF90DF90CF90BF90AF9008950F9398
:102F90009C01CB01233F4CE5340759F1A8F4283DAF
:102FA000FCE53F0701F1293D4CE53407D1F1273D10
:102FB0003C4591F406E221EE41EE67ED7CE50E948E
:102FC0003C1780E00F910895253FFCE53F07E9F0AD
:102FD000B0F0263F3C45F9F0FC018281882339F1AD
:102FE0001092E701EFCF07E225EE45EE68ED7CE5B4
:102FF000E6CF06E221EE40EE63EF7CE5E0CF07E2AC
:1030000025EE44EE64EF7CE5DACF06E221EE42EEF7
:1030100065EF7CE5D4CF07E225EE46EE66EF7CE572
:10302000CECF08E221E045EE69ED7CE5C8CF81E036
:10303000C9CFCF93DF93EC01FB018281882309F490
:1030400019C1C230FCE5DF07C0F1C6319CE5D907E4
:1030500030F09E012A5F3C452930310570F50E9411
:10306000C72B9093B4028093B302C031ECE5DE0726
:1030700009F4CFC008F05BC0C8308CE5D80709F46C
:10308000B6C088F5C430ECE5DE0709F4A8C0C0F48A
:10309000C2308CE5D80709F49CC08091B3028260ED
:1030A000C330DC4509F498C08091B3029091B4021A
:1030B0000E94D52B0E94F12080E0DF91CF910895EE
:1030C0008091B3028061C630ECE5DE0709F484C06C
:1030D0008091B3028860C730DC4508F47DC08091E0
:1030E000B302806279C0CC308CE5D80709F489C07E
:1030F00070F48091B3028C60CA30ECE5DE0709F40D
:103100006BC008F478C08091B3028E7F65C0CE306A
:103110008CE5D80709F479C08091B3028B7FCF305A
:10312000DC4508F459C08091B3028F7E55C0CB3F77
:10313000ECE5DE0709F457C030F5C3318CE5D8075C
:1031400009F46FC078F4C131ECE5DE0709F465C01D
:10315000C231DC4509F0A8CF0E94F1208091B30272
:103160008F773AC0C5318CE5D80709F462C008F4FE
:1031700076C08091B4028160CA3FDC4509F094CFEB
:103180008093B40291CFCF3FFCE5DF0709F44DC037
:1031900088F48091B4028D7FCD3F9CE5D90781F3FF
:1031A0008091B4028E7FCE3FDC4550F38091B40213
:1031B0008360E6CFC130FDE5DF0709F459C008F4AC
:1031C00044C080E0C230DD4509F06ECF0E945B2C28
:1031D0006BCF8091B30281608093B30265CF809101
:1031E000B3028460F9CF8091B4028260C9CF80912C
:1031F000B3028064F1CF0E94F1208091B302806815
:10320000EBCF8091B3028D7FE7CF8091B302877FB0
:10321000E3CF8091B3028F7DDFCF8091B3028F7BAC
:10322000DBCF8091B302837FD7CF8091B4028C7FB4
:10323000A7CF8091B30282FB992790F921E09227D2
:1032400090FB82F990FB83F9C7CF8091B402982F4D
:10325000909591708E7F892B90FB81F991CF0E9480
:10326000F1209091B302892F97FB87F98058B4CF52
:1032700081E0ACCF81E021CFCF93DF93EB018631AA
:103280009C4509F03BC00E94B02A982F9A7A209161
:10329000BD0320FF04C0382F347409F090E021FFF3
:1032A00004C0382F317109F090E022FF04C0382F9C
:1032B000387809F090E023FF03C0827209F090E0B3
:1032C0008A81882389F081E0911101C080E0809398
:1032D000E80189E2911185E30E94332A0E94282B9C
:1032E00080E0DF91CF9108958091E801811104C0C1
:1032F00089E20E943A2AF2CF85E3FBCF81E0F1CF49
:10330000E9E7F3E083E0E13AF80739F488E090E098
:103310009093FA018093F9010895848187FF1482C4
:103320003596F0CFCF939091F701992321F0811139
:1033300016C01092F701CF910895EC2FF0E0EE0F38
:10334000FF1FE751FE4F808191810E9466040E9419
:10335000282BCF5F8091F701C81778F3EACFC0E040
:10336000F9CF80910A018823A1F08091FB0190910F
:10337000FC01009771F00E944E2D2091B90330910D
:10338000BA032817390728F481E00E9492190C9497
:103390008019089510920A011092FC011092FB010D
:1033A00081E00C94921980910A0181110C94CA1940
:1033B00081E080930A0108952F923F924F925F928D
:1033C0006F927F928F929F92AF92BF92CF92DF9235
:1033D000EF92FF920F931F93CF93DF93CDB7DEB79A
:1033E0002A970FB6F894DEBF0FBECDBF7C016B01EC
:1033F000873F4CE5940709F5FB011281112391F1F8
:1034000081E080930A01812F2A960FB6F894DEBFDF
:103410000FBECDBFDF91CF911F910F91FF90EF9025
:10342000DF90CF90BF90AF909F908F907F906F90E4
:103430005F904F903F902F900895883FFCE59F0745
:1034400039F4FB011281112369F00E94CA19DBCF04
:10345000893F9C4539F4FB011281112319F00E9428
:10346000D319D1CF40900A0111E0442061F21092AB
:10347000FA011092F90110E095E0392E8824839426
:10348000912C22242394A090F901B090FA01F8E045
:10349000AF16B10480F08091F801882309F4B2C01E
:1034A0000E94362D9093FC018093FB011092F8014D
:1034B00081E01827A8CF3A9CF0013B9CF00D112425
:1034C000E758FC4FBE016F5F7F4F80810E94AF13B2
:1034D000892B61F000E0102B8091F9019091FA01A5
:1034E00001969093FA018093F901CDCFFE013196B8
:1034F00090E080E055245A94282F41915191411534
:10350000510589F1E416F50609F4582E0196843028
:10351000910591F724E0FFEF5F16E1F2F6010281D9
:103520003A9CC0013B9C900D1124AC0147585C4F64
:103530003A01FA018481A40102C0440F551F2A9563
:10354000E2F79A0121503109002349F1A40101C099
:10355000440F5A94EAF7842B84838F7782171306DB
:1035600031F0042DB8CF823008F4B4CFD4CF80E04E
:103570000E949219F30184818068848382819381FF
:10358000009729F00E9466042092F801A4CF61E020
:103590008091F9019091FA010E949812F5CF8F77EE
:1035A0008217130631F482819381009719F10E94EA
:1035B0007B043A9CF0013B9CF00D1124E758FC4F32
:1035C0004481242F30E0052C02C0359527950A94BC
:1035D000E2F720FF7FCFC40101C0880F5A94EAF7B9
:1035E00080958423848387FF75CF803809F0B9CF15
:1035F0001482B7CF60E08091F9019091FA010E94A6
:103600009812D7CF111106C081E00E9492190E9432
:1036100080194ECFF6018281882309F449CF0E9498
:10362000362D9093FC018093FB01E091F701E73088
:1036300008F03ECF81E08E0F8093F701F0E0EE0FAF
:10364000FF1FE751FE4FF182E08232CFCF93DF932D
:10365000EC0181E0898B8F810E94B32A88850E94CA
:10366000C62A0E94282BEA81FB81309739F06C89A9
:103670007D89CE010696DF91CF910994DF91CF919C
:103680000895EF92FF920F931F93CF93DF93EC0176
:103690008A85811134C0EB80FC8087E5F81A26E129
:1036A0002E9DC0012F9D900D1124DC01A753BD4F0D
:1036B0001496ED91FC911597309731F054966D91D9
:1036C0007C9181539D4F099586E18E9D80018F9D50
:1036D000100D112407531D4FF80187810E94B92A4C
:1036E000F80180850E94CC2A0E94282B1882198616
:1036F0001B861E821D821092FE011092FD01DF9139
:10370000CF911F910F91FF90EF900895DF92EF926C
:10371000FF920F931F93CF93DF937C01FB01828174
:10372000882391F080910B018F3F71F0C9ECD2E0BA
:1037300010E000E0DD24D39480910B01082E000CF2
:10374000990B8017910744F4DF91CF911F910F914E
:10375000FF90EF90DF9008958E818823D9F08985BE
:103760009A858E159F0539F48091FD019091FE0197
:103770008E159F0579F0DF86FC86EB86898981119D
:1037800003C0CE010E94261BCE0106960E94411B5B
:103790000E94D32A0F5F1F4F6696CECFEF92FF9203
:1037A0000F931F93CF93DF937C0197558F3F910524
:1037B00009F0D8F520910B01022E000C330B2817CD
:1037C000390714F480930B01FB01228136E1389F05
:1037D0008001399F100D1124E801C753DD4F288B5C
:1037E00092818E81992349F1FA86E9868F5F8E83D3
:1037F0000E94362D9E878D870E94E62A8F830E9425
:10380000B02A88870E94C32A9885892B8887E881F7
:10381000F981309731F06C897D89C80181539D4FC2
:103820000995F092FE01E092FD0181E0DF91CF91D8
:103830001F910F91FF90EF9008958823B1F389892C
:10384000882399F3C80181539D4F0E94411BEDCFFE
:10385000CF92DF92EF92FF920F931F93CF93DF935C
:1038600080910B0110E006E18F3FF1F5DF91CF91E0
:103870001F910F91FF90EF90DF90CF9008950E9DD4
:10388000F0010F9DF00D1124E753FD4FC288D3883E
:10389000C114D10439F470E060E0818592850E9402
:1038A00022176C010E9DE0010F9DD00D1124C7530E
:1038B000DD4F8E818823B9F08D859E850E944E2D27
:1038C000C816D90680F4109F7001112489898111CE
:1038D00005C0C70187539D4F0E94261BC701815316
:1038E0009D4F0E94411B1F5FE12EF12C80910B0127
:1038F000082E000C990B8E159F050CF6B7CFFF9282
:103900000F931F93CF93DF938C01EB01F42E8091E3
:103910000C0182FF4AC08B7F80930C0180910102D1
:10392000909102029B01281B390BC90120910D01C6
:1039300030910E0182179307B8F48091FF010E9425
:10394000B41F80910C018D7F80930C018091C10385
:103950009091C203019710F58091FF010E944620CB
:1039600082E00E94CC2A2BC082E00E94C62A80916D
:10397000FF010E94B41F80910C01826080930C01B2
:103980008091BE0385FFE2CF86FDE0CFFF20F1F2FC
:10399000DF91CF911F910F91FF900895EFE9FFE024
:1039A0003197F1F700C00000D5CF802F0E9446204C
:1039B0008091FF01909100028017910789F20E9487
:1039C000282BD0930202C0930102E2CF8091BE0364
:1039D00080FF1DC080910C0182FF19C00E94362D0E
:1039E0002091010230910202AC01421B530B9A015B
:1039F00040910D0150910E012417350740F041E030
:103A0000BC018091FF01909100020C947F1C0895ED
:103A100090910C01892F8E7F90FF816080930C0123
:103A200082E00C94CC2A80910C018E7F80930C0153
:103A300082E00C94CC2A90930E0180930D0108959E
:103A40008832910538F48E319105E8F40497A0F49A
:103A500080E008958933910558F48D32910510F472
:103A60008B97B1F78091BE0382FB882780F908C04D
:103A700084369105B9F3ECCF8091BE0382958170B5
:103A800091E0892708958091BE0383FB882780F900
:103A9000F7CFCF92DF92EF92FF920F931F93CF93C6
:103AA0008C016B018091BE0380FD0AC0C1E08C2FA8
:103AB000CF911F910F91FF90EF90DF90CF900895DD
:103AC0000E94362D7C01F601C281CC2329F1809120
:103AD0000C0182FF06C040E0B70190E080E00E9448
:103AE0007F1C82E00E94CC2A0B31FCE51F0759F0B5
:103AF0000C314CE5140769F00A315CE5150761F4F7
:103B00000E94081DD4CF80910C01816080930C012C
:103B1000CECF0E94131DCBCFB601C8010E94201D3D
:103B2000882321F2F601C281CC2309F44EC0809192
:103B30000C0180FFBBCF8091BE0381FF15C0809137
:103B4000BE0385FD16C0109300020093FF01F092A2
:103B50000202E092010280910C01846080930C01CA
:103B600082E00E94902B2FC00E94B02A882339F354
:103B70009DCF2091010230910202A701421B530BFD
:103B80009A0186FD04C080910C0181FDDCCF283CA8
:103B90003105C8F68091FF019091000208171907BE
:103BA00091F680910C0181FBCC27C0F981FD04C006
:103BB000802F0E94B41F7BCF82E00E94C62A809192
:103BC000FF010E94B41FC0E072CF40E0B701C801FE
:103BD0000E947F1C6CCF9093080280930702089587
:103BE000E0910702F0910802309721F00190F081F6
:103BF000E02D099480E00895E0910702F091080219
:103C0000309721F00280F381E02D09940895E0912E
:103C10000702F0910802309739F022E0DC012C9382
:103C20000480F581E02D09940895209105023091DA
:103C300006022817390771F0909306028093050257
:103C4000E0910702F0910802309721F00680F78199
:103C5000E02D099408952091030230910402281761
:103C6000390771F09093040280930302E0910702F8
:103C7000F0910802309721F00084F185E02D09943D
:103C800008950E94422D60931C0270931D02809340
:103C90001E0290931F026093180270931902809382
:103CA0001A0290931B0208950E94422D60931C02F9
:103CB00070931D0280931E0290931F026093140262
:103CC000709315028093160290931702089585B79A
:103CD000806885BF85B7806885BF08950895089579
:103CE0000C946E1E08950C94721E0E94671E8CEA3E
:103CF0009BE20E94A52D0E94AA100E9430160E94ED
:103D00006F1E0C94701E81E008950C94831E08951C
:103D100008950E94871E0C94881E0E942D2D0E94DB
:103D200030090E94840D0E94F00C0C94731E8F9237
:103D30009F92AF92BF92CF92DF92EF92FF920F933A
:103D40001F93CF93DF93CDB7DEB72A970FB6F894C2
:103D5000DEBF0FBECDBF0E947E0981110E94411EB1
:103D60005AE0852E52E0952E10E000E0A02E802F24
:103D70000E9407096C01F401E190F1904F01E816EF
:103D8000F90609F461C08091A70281FD0E94100923
:103D9000C7018C259D25B12CEE24E394F12C9C01C8
:103DA0002E213F21232B09F449C00E94851E882320
:103DB000A9F0BE82AF82CE20DF2081E0CD2809F4B9
:103DC00080E088870E94362D8160782F9A878987C6
:103DD0004E815F8168858A850E94581F000F111FE0
:103DE000F801E65FFD4F80819181E826F926F18296
:103DF000E0820E94010D81110E94541E0E94D60B88
:103E00000E94F01D909109028917A9F10E94F01DEE
:103E1000809309022A960FB6F894DEBF0FBECDBF7D
:103E2000DF91CF911F910F91FF90EF90DF90CF9096
:103E3000BF90AF909F908F900C94C206B394EE0CFD
:103E4000FF1CFFE0BF12ABCF0F5F1F4F0530110506
:103E500009F08CCF8FEF89838A831B820E94362DD5
:103E60008160782F9D838C8349815A816B818D81FC
:103E70000E94581FBECF2A960FB6F894DEBF0FBE21
:103E8000CDBFDF91CF911F910F91FF90EF90DF9009
:103E9000CF90BF90AF909F908F900895019708F4B6
:103EA0000895EFE9FFE03197F1F700C00000F6CF89
:103EB000CF92DF92FF920F931F93CF93DF93CDB7F3
:103EC000DEB72B970FB6F894DEBF0FBECDBF7A8753
:103ED0008B878A01F62ECA84DB84C114D10421F0B9
:103EE000812F84238F3F89F5F1100E94D32A1E82EF
:103EF0001D8209831A83FB82DD82CC828091A50317
:103F00009091A603892B61F00E946E2A882319F0F4
:103F100082E00E94902B0E944A2A81110E941A2B53
:103F200049815A816B817C818D819E812B960FB650
:103F3000F894DEBF0FBECDBFDF91CF911F910F91DF
:103F4000FF90DF90CF900C944627809121029091B2
:103F5000220201969093220280932102C5CFFC0198
:103F6000808191810C94052ACF93C82F882309F46E
:103F70008BC08238C1F40E94F01D81FD85C089E3A9
:103F80000E94332A0E94282B2FEF81EE94E02150CB
:103F900080409040E1F700C0000089E30E943A2A87
:103FA000CF910C94282B8338A1F40E94F01D80FD42
:103FB0006BC083E50E94332A0E94282B2FEF81EEED
:103FC00094E0215080409040E1F700C0000083E57C
:103FD000E5CF8438A1F40E94F01D82FD55C087E42E
:103FE0000E94332A0E94282B2FEF81EE94E021506B
:103FF00080409040E1F700C0000087E4CFCF8CEF15
:104000008C0F813A90F46C2F80910F0190911001E8
:104010000E94722C882329F08C2F0E943A2A0E9439
:10402000282B8C2F0E94332ABBCF80E28C0F883044
:1040300048F4C77081E001C0880FCA95EAF70E9472
:10404000B32AAECFEBE5EC0FE33040F4F0E0E955F6
:10405000FE4F808190E0CF910C94151EE8E5EC0FA7
:10406000E73150F4F0E0EE0FFF1FE758FE4F80817C
:104070009181CF910C942B1EC03F30F08C2F0E9469
:10408000D00ACF910C94BB0BCF910895882309F4EB
:1040900052C0823871F40E94F01D81FF4CC089E348
:1040A0000E94332A0E94282B89E30E943A2A0C940A
:1040B000282B833859F40E94F01D80FF3CC083E513
:1040C0000E94332A0E94282B83E5EFCF843859F4CD
:1040D0000E94F01D82FF2FC087E40E94332A0E94B5
:1040E000282B87E4E2CF9CEF980F913AF0F290E210
:1040F000980F983050F4877091E001C0990F8A951D
:10410000EAF7892F0E94B92AD2CF9BE5980F933006
:1041100020F490E080E00C94151E98E5980F9731FC
:1041200020F490E080E00C942B1E803F20F00E9451
:10413000380B0C94BB0B08951F93CF93DF93182F6C
:10414000EB010E94B41F209731F4812FDF91CF91B2
:104150001F910C9446208FE99FE00197F1F700C072
:1041600000002197F0CF6091C3037091C40389339D
:1041700021F06091C1037091C2030C949C208823AC
:1041800021F00E94B32A0C94282B0895882321F053
:104190000E94B92A0C94282B0895882321F00E94AC
:1041A000C62A0C94282B0895882321F00E94CC2A3B
:1041B0000C94282B089590E080E00E94151E90E05A
:1041C00080E00E942B1E0E94D32A0E94E32A0E94B4
:1041D000282B0E94E20C0C94BB0B0E94412A0C94E9
:1041E000DB200E94C02A0C94ED20E92FE295EF70AD
:1041F000E250EE3070F4F0E0EC53FA4C0C943435AD
:10420000803F19F020F4883E20F481E00895843F37
:10421000E1F380E00895883EC0F3813FD1F7F5CF08
:1042200093FB882780F908950E94052A0C94F520B5
:104230004F925F926F927F92BF92CF92DF92EF92F6
:10424000FF920F931F93CF93DF937C01EB01FC014F
:104250000281158112951F700E94882AC82E88231A
:10426000A1F0C02E002389F08D2F807F803429F0AB
:1042700080E28C0FC12C883040F082E00E94902BAD
:104280000E94882A91E0C82EC926BD2EB2942FE044
:10429000B222EB2DF0E0EE52FA4C0C943435FD2FA7
:1042A000FF70DF2E8D2F807F19F0D29490EFD922EE
:1042B0000023A9F0DD2059F080E28C0F883010F047
:1042C000C11109C08D2D0E94B32A0E94282B8C2F6A
:1042D0000E94B41F14C08D2D0E94C62AF6CF8C2FC9
:1042E0000E944620DD2059F080E28C0F883010F0CB
:1042F000C11138C08D2D0E94B92A0E94282BEB2DA8
:10430000E850FF0B349720F40E94F01D0E94C20673
:10431000CE010E94F520811111C21092220210924A
:104320002102CC2009F42BC20E946A2A80FD27C2F8
:10433000F70112820E94642A0E94CA28C7010E94C3
:10434000E4230E94642ADF91CF911F910F91FF9087
:10435000EF90DF90CF90BF907F906F905F904F90E5
:104360000C94EB288D2D0E94CC2AC7CF2D2F2F70B7
:10437000D22E8D2F807F803219F0D29480EFD822F8
:10438000CC23E9F0C13009F455C0002309F45CC026
:10439000112391F120E0F701408151816281738105
:1043A00084810E949904B7010E942B1781118FCF3D
:1043B000F701858180FF8BCF8F7085831DC000231F
:1043C000E9F0111106C00E94E62A8D290E94BF2043
:1043D00096CF113031F40E94E62A8D290E94022BDB
:1043E0008ECF8091BF03823070F38113ECCF0E9497
:1043F0001A2B8D2D0E94EC2A8D2DE8CF111106C0AD
:104400000E941A2B8D2D0E94C62079CF8091BF0368
:10441000113059F4823008F472CF0E94B02A8D21F5
:1044200009F46DCF0E94F52AEBCF823048F31813C0
:10443000E7CF65CF002321F0163008F060CFDCCF46
:10444000153008F05CCFDECF1123E1F28091C30379
:104450009091C403C93321F08091C1039091C203AC
:104460000E944E1F8C2F0E94462049CF8D2F86958B
:104470008695837061F0813009F041CFCE01937051
:10448000011102C090E080E00E942B1E38CFCE01C7
:104490009370011102C090E080E00E94151E2FCFA2
:1044A0008C2F002339F00E94D00A0E94BB0B0E947F
:1044B000BB0B25CF0E94380BFACF8D2F837009F0EC
:1044C00043C001111CCF2C2F229526952770220F57
:1044D000220F6C2F6F70462E512C712C612C022EE6
:1044E00004C0440C551C661C771C0A94D2F760E08B
:1044F00070E0CB01C4FF0FC06FE070E080E090E09F
:1045000004C0660F771F881F991F2A95D2F7609500
:104510007095809590952D2F26952695237064296A
:10452000752986299729223049F058F4213019F04D
:104530000E947C28E4CE0E946A28E1CE0E948E2848
:10454000DECE0E946828DBCE8695002311F08D2FE9
:104550008170882309F4D3CE2C2F229526952770BD
:10456000220F220F6C2F6F70462E512C712C612C54
:10457000022E04C0440C551C661C771C0A94D2F70A
:1045800060E070E0CB01C4FF0FC06FE070E080E03E
:1045900090E004C0660F771F881F991F2A95D2F7F5
:1045A00060957095809590952D2F26952695237072
:1045B0006429752986299729223049F058F4213039
:1045C00019F00E9441299BCE0E942F2998CE0E946B
:1045D000532995CE0E94A42892CEFD2FFF70DF2E86
:1045E000002329F08F2F0E94CA288C2FEFCE8C2F0A
:1045F0000E94C6208D2D0E94EB2881CEC23F09F477
:104600003FC060F4C03F31F1C13F91F1002309F494
:1046100080C011115CCE8D2F8F712FC0C33FA9F1C7
:10462000C43FA1F78091BF03823008F45BC0002330
:1046300009F444C00E94472A0E94B92A0E946A2AAB
:10464000843069F50E94872B8D2F8F710E94EB2893
:10465000C12C55CE002341F0153008F050CE8D2FDF
:104660008F710E940E294BCE163008F048CEF7CF3E
:104670008D2F8F71002309F4BECF0E94CA283FCE30
:104680008D2F8F710023C9F3B6CF002329F08D2F12
:104690008F710E94B52833CE0E94B02830CE809111
:1046A000BF031817A8F62D2F2F71D22E822F0E942C
:1046B000CA2863E08D2D0E946B2BCACF0E94472A27
:1046C0000E94B32A8091BF03181740F00E94872BE5
:1046D0000E94F52A64E08D2F8F71EDCF81E00E945A
:1046E000902BB6CF002359F03D2F3F71D32E832F4F
:1046F0000E94CA2863E08D2D0E946B2B00CE81E0C2
:104700000E94902B123008F4FACD82E00E94902B88
:10471000F6CD11119BCE8D2F8F716DCF4D2F4F7018
:104720006C2FC7010E94CA060E94E027E8CD4D2FDA
:104730004F706C2FC7010E94CD06E1CD002319F008
:104740001111EBCDEECD1111E8CD20E0F701408144
:1047500051816281738184810E949904B7010E9412
:104760003617882309F4D9CD809121029091220235
:10477000029709F0D2CD8C2F0E94B320CECDDF91CD
:10478000CF911F910F91FF90EF90DF90CF90BF904E
:104790007F906F905F904F9008950F931F93CF93EA
:1047A000DF93EC01688179818A810E940F2A8C0154
:1047B0000E9465290E946728B801CE01DF91CF9140
:1047C0001F910F910C941821CF93DF93EC018B81F3
:1047D0009C81892B29F08881998189238F3F59F405
:1047E000DF91CF910895CE010E94CD23CE01DF91BC
:1047F000CF910C94D504CE010E94D1058111F3CF45
:104800000E94882A882361F38A81882349F382E001
:10481000DF91CF910C94902BCF93DF9300D000D0F9
:104820000F92CDB7DEB70F900F900F900F900F90B3
:10483000DF91CF910895CF93DF9300D000D000D0C7
:10484000CDB7DEB726960FB6F894DEBF0FBECDBF4C
:10485000DF91CF9108951F93CF93DF93C0912302EF
:1048600016E0809124028C1304C0DF91CF911F9138
:104870000895D0E01C9FF0011D9FF00D1124EB5D09
:10488000FD4F4081518162817381848195810E94B5
:104890001B242196C770E5CF4091550250915602D6
:1048A00060915702709158028091590290915A027A
:1048B0000C941B24209123029091240256E029138A
:1048C00002C080E0089530E0529FF001539FF00D48
:1048D0001124EB5DFD4F7181761306C07081781352
:1048E00003C07281741304C02F5F3F4F2770E7CF5E
:1048F00081E00895DF92EF92FF920F931F93CF9381
:10490000DF9380915A02807F61F48091570288235F
:1049100041F0C091230286E0D82E809124028C13AE
:1049200008C0DF91CF911F910F91FF90EF90DF9022
:1049300008952091580230915902D0E02115310597
:1049400041F08091550290915602482F49234F3FE4
:1049500019F42196C770E1CFDC9E8001DD9E100D19
:104960001124F801EB5DFD4F51815913F2CF4081C5
:104970004813EFCF82818111ECCFE380F480E21AFB
:10498000F30A20E060915702709158028091590219
:104990000E94990465E572E00E942217E816F90664
:1049A000C0F680915A028F70806180935A02F8019C
:1049B000E65DFD4F80818F708061808385E592E0A8
:1049C0000E94E423DF91CF911F910F91FF90EF9010
:1049D000DF900C942B246F927F928F929F92AF92D4
:1049E000BF92CF92DF92EF92FF920F931F93CF93DC
:1049F000DF93CDB7DEB761970FB6F894DEBF0FBE79
:104A0000CDBF8C0185E0F801DE011D9601900D926D
:104A10008A95E1F7D8017C901196EC901197129647
:104A2000FC9085E5882E82E0982E80915802909126
:104A30005902009749F04091550250915602242F97
:104A400025232F3F09F0BDC1F1101BC1C8010E94F1
:104A5000E42387C020E040915502509156026091B6
:104A6000570270915802809159020E949904B8012E
:104A70000E9427178111E9C1CD2829F08E2D8721A9
:104A80008F3F09F017C180E0B82FB170CB2E80FFA7
:104A900029C04F2D6E2D872D0E945A24D82E8111AA
:104AA00021C07D86EE868D859E850E94052A292F50
:104AB00022952F70223050F0243078F49F7051F0FE
:104AC000F8019581907F31F46D2C10C19F7011F029
:104AD0008823D1F3805E8830B8F3C8010E94E423B4
:104AE000DC2CF2CFFF2009F401C180915A028160D1
:104AF00080935A02612CFAC0892B49F080915502AB
:104B000090915602282F29232F3F09F005C17D8659
:104B1000EE868D859E850E941421882309F496CF08
:104B2000FF2009F493CF80915A02803270F02091D7
:104B300055023091560238872F831986DB86CA8644
:104B40008C87CE0107960E94E42386E0F801A5E554
:104B5000B2E001900D928A95E1F70E947A240E94BA
:104B60004C2466246394C2C0211113C07C2DD98AC1
:104B7000C88A472D5E2D6F2D89890E940C2485E5FA
:104B800092E00E94E42386E0F40111928A95E9F70D
:104B90007AC18091580290915902892B49F08091F5
:104BA000550290915602282F29232F3F09F0CDC09E
:104BB0007D86EE868D859E850E941421882309F4CA
:104BC00045CFFF2009F442CF80915A02803208F489
:104BD000BCCF20915502309156023A8329831B8223
:104BE000DD82CC828E83CE010196ADCF20E060E0E5
:104BF00070915802809159020E94990465E572E013
:104C00000E942217A816B90668F56F2CFF2009F438
:104C10001DCF8091580290915902892B49F0409103
:104C2000550250915602842F85238F3F09F0A3C06F
:104C30007D86EE868D859E850E941421811185CF0B
:104C400080915A02816080935A02C8010E94E42335
:104C50004DC086E0F801A5E5B2E001900D928A957D
:104C6000E1F744C07C2DD98AC88A472D5E2D6F2D6F
:104C700089890E940C2486E0D4011D928A95E9F767
:104C800061C07D86EE868D859E850E941421682EEA
:104C9000882309F4DBCE86E0F801A5E5B2E00190B7
:104CA0000D928A95E1F785E592E00E94AF1F0E9480
:104CB0007A2448C081E08F25E7CE81E08F25CEC0E1
:104CC0009E11AFC08711ADC0F110ABC080915A02E8
:104CD0008F70806180935A020E944C2485E592E097
:104CE0000E94E42380915A02F8018583862D619603
:104CF0000FB6F894DEBF0FBECDBFDF91CF911F91ED
:104D00000F91FF90EF90DF90CF90BF90AF909F906A
:104D10008F907F906F9008959E11F9CE8711F7CEF6
:104D2000F110F5CE80915A02D80115968C93C801E6
:104D30000E94E42386E0F801A5E5B2E001900D921F
:104D40008A95E1F70E944C24D1CF9E1131CF871173
:104D50002FCFF1102DCF80915A02D80115968C9348
:104D6000C8010E94E423E5E5F2E086E0DF011D9240
:104D70008A95E9F7BBCF5E115BCF471159CF20E091
:104D80006091570270915802809159020E949904D3
:104D9000B8010E94301781115CCF80915A0280FDCA
:104DA00058CF982F907F09F454CFF8018583903F16
:104DB00009F4BDCF982F907F905F8F70892B8583EA
:104DC000B6CFF801C380D480609057025601A81A6C
:104DD000B90A662009F40ACF20E0662D70915802C6
:104DE000809159020E94990465E572E00E942217A1
:104DF00020915A02207FA816B90608F0B5CE8091FE
:104E0000580290915902211177CE6F2C892B49F0CD
:104E10008091550290915602282F29232F3F09F0A7
:104E20004FCF20E0409155025091560260915702B9
:104E300070915802809159020E949904B8010E9411
:104E40002217843F914008F405CEC114D10429F003
:104E50008E2D87218F3F09F030CF80E080FF0CCE70
:104E60004F2D6E2D872D0E945A24882309F404CEDD
:104E700085E592E00E94E42386E0E5E5F2E0DF01CB
:104E80001D928A95E9F70E944C2434CE1F93CF934C
:104E9000DF93CDB7DEB72C970FB6F894DEBF0FBE09
:104EA000CDBF4F83588769877A878B879C87CE01D0
:104EB00007960E94EB24882369F08A859B85892BBD
:104EC00039F04F815885842F85238F3F09F071C0B9
:104ED00016E05FC086E0FE013796DE011196019074
:104EE0000D928A95E1F78A859B85892B89F38F81BD
:104EF000988589238F3F61F32091240230E0C90116
:104F0000019687709927409123024817190671F47A
:104F10000E94F120109224021092230286E0E5E51F
:104F2000F2E0DF011D928A95E9F7D2CF96E0929FD9
:104F3000D001939FB00D1124AB5DBD4FFE013196A2
:104F400001900D929A95E1F7809324020E942B2400
:104F5000BFCF819FC00111248B5D9D4F0E94EB2428
:104F60008823E9F0E09123021E9FF0011124EB5DFC
:104F7000FD4F4081518162817381848195810E94BE
:104F80001B248091230290E00196877099278093DB
:104F9000230280912302909124028913DACF2C9668
:104FA0000FB6F894DEBF0FBECDBFDF91CF911F913A
:104FB000089569857A858B859C850E941B2488CFFE
:104FC000EF92FF920F931F93CF93DF938C01892B66
:104FD00081F0F12CEE24E394E8012196F80184910C
:104FE000843770F4843008F05FC08130B1F08230D3
:104FF000A1F1DF91CF911F910F91FF90EF90089554
:10500000853709F44CC008F43DC09CE7980F9037F1
:1050100080F78F770E94462049C00E5F1F4FFE0128
:10502000849190E2980F983060F48770FE2D01C053
:10503000FF0F8A95EAF78F2F0E94D62A0E94282B0D
:1050400002C00E94B41F8F2D815030F2EFE9FFE0C3
:105050003197F1F700C00000F7CF0E5F1F4FFE0140
:10506000849190E2980F983050F48770FE2D01C023
:10507000FF0F8A95EAF78F2F0E94DC2ADFCF0E946C
:105080004620E1CF0E5F1F4FFE01C491C150D8F200
:105090008FE99FE00197F1F700C00000F7CF0E5FA6
:1050A0001F4FFE01F490CFCF0E94B41F8E01CBCFD3
:1050B00008950C9458280E94592860939102709387
:1050C000920280939302909394020C94DB200895B3
:1050D0000C945B280F931F93009191021091920200
:1050E0002091930230919402602B712B822B932B91
:1050F0001F910F910C945B280F931F9300919102C5
:1051000010919202209193023091940260237123B6
:10511000822393231F910F910C945B280F931F936D
:105120000091910210919202209193023091940289
:1051300060277127822793271F910F910C945B287A
:105140000C9458280C94A0280E94A22860938D02E9
:1051500070938E0280938F02909390020C94DB20C8
:1051600060E070E0CB010C94A4280F931F9341E002
:1051700050E060E070E08A019B0104C0000F111F45
:10518000221F331F8A95D2F7C901B8011F910F91D1
:105190000C94A4280F931F9341E050E060E070E06E
:1051A00004C0440F551F661F771F8A95D2F7809160
:1051B0008D0290918E02A0918F02B09190028A018F
:1051C0009B01082B192B2A2B3B2BC901B8011F91DE
:1051D0000F910C94A4280F931F9341E050E060E0DE
:1051E00070E004C0440F551F661F771F8A95D2F7E1
:1051F000CB01BA01609570958095909500918D02D4
:1052000010918E0220918F023091900260237123C1
:10521000822393231F910F910C94A4280F931F9323
:1052200041E050E060E070E004C0440F551F661F8D
:10523000771F8A95D2F780918D0290918E02A0916E
:105240008F02B09190028A019B01082719272A2713
:105250003B27C901B8011F910F910C94A4280F930B
:105260001F9300918D0210918E0220918F02309138
:105270009002602B712B822B932B1F910F910C941A
:10528000A4280F931F9300918D0210918E022091FC
:105290008F023091900260237123822393231F9108
:1052A0000F910C94A4280F931F9300918D021091DD
:1052B0008E0220918F023091900260277127822701
:1052C00093271F910F910C94A42808959E3F69F194
:1052D000E82F2FE0929FE00D11248E2F877041E080
:1052E00001C0440F8A95EAF7E695E695E69585E0D4
:1052F000E89FF0011124E55AFD4F30E020E070E016
:105300005191DF011197CB01022E02C0969587952E
:105310000A94E2F7817081958527842385278C93F1
:105320002F5F3F4F2530310559F708959E3F49F1D2
:10533000E82F2FE0929FE00D11249E2F9770E695A5
:10534000E695E69585E0E89FF0011124E55AFD4FCA
:1053500050E040E080E0219130E0092E02C0369517
:1053600027950A94E2F721703327042E01C0220FFB
:105370000A94EAF7822B4F5F5F4F4530510559F78A
:10538000089580E00895BF92CF92DF92EF92FF924E
:105390000F931F93CF93DF938C01C0908D02D09019
:1053A0008E02E0908F02F090900280919102909195
:1053B0009202A0919302B0919402C82AD92AEA2AB3
:1053C000FB2ACFE1D0E0BC2ED701C6010C2E04C0D1
:1053D000B695A795979587950A94D2F780FD0EC04C
:1053E000219788F7B12C8B2DDF91CF911F910F91D1
:1053F000FF90EF90DF90CF90BF900895B8018C2F71
:105400000E94D606019761F3EECFCF93DF93EC01B4
:105410000E94C329BE01DF91CF910C94D6061F9341
:10542000CF93DF93EB0190912002992331F0CB01D0
:10543000DF91CF911F910C94052A882379F0CB013D
:105440000E94C329182F682FCE010E946629BE0131
:10545000812FDF91CF911F910C94D606CB010E9432
:105460009629182FF4CF682F80910F019091100189
:105470000C94A82C682F80910F01909110010C942E
:10548000AA2C80910F01909110010C94AC2C80916A
:105490009A0208958091A5039091A603892B89F023
:1054A0000E94362D2091980230919902AC01421B46
:1054B000530B81E02091A5033091A60342175307B7
:1054C00008F480E081700895809197028595859514
:1054D0008595089580919702877008950E94362DD2
:1054E0002091950230919602821B930B2091A50387
:1054F0003091A6038217930748F08091970282FBB0
:10550000882780F991E089278170089580E0FCCF99
:1055100090919702977081E009F480E0089590914E
:10552000B40292FB222720F9281751F080FB92F950
:105530009093B4028091B3029091B4020C94D52B55
:1055400008958091B40282FB882780F991E0892731
:105550000C948F2A81E00C948F2A80E00C948F2A7F
:105560008091A60208959091A602892B8093A602AD
:10557000089580959091A60298239093A60208958D
:105580001092A60208958091A50208959091A50217
:10559000892B8093A502089580959091A502982368
:1055A0009093A50208951092A50208959091A402E7
:1055B000892B8093A402089580959091A40298234A
:1055C0009093A40208951092A402089580919B02E2
:1055D000089508950C94E92A90919A02981721F061
:1055E00080939A020C94EA2A089580919A02882363
:1055F00029F010929A0280E00C94EA2A0895089506
:105600000C94FF2ACF93C82F8091B40282FD10C062
:1056100080919B028C1761F00E94362D9093990225
:1056200080939802C0939B028C2FCF910C94002BF7
:10563000CF91089580919B02882349F010929B029C
:10564000109299021092980280E00C94002B089519
:10565000E0910F01F09110018091A6028083E0910A
:105660000F01F091100180819091A502892B808318
:10567000E0910F01F091100180819091A402892B9B
:10568000808380919B028823E9F08091A50390910B
:10569000A603892B29F00E944A2A81110E941A2B05
:1056A000E0910F01F0911001808190919B02892B74
:1056B000808380910F01909110010E94602C8111D4
:1056C0000E941A2B80910F01909110010C94FC1DE7
:1056D00008950C94682B9091B40292FD16C098E046
:1056E000899F90011124622B609397020E94CA281F
:1056F0000E94362D90939602809395028091970296
:105700008595859585950C94692B0C94CA281092E3
:105710009702109296021092950280E00C94692BE9
:10572000909197028095892380939702282F277064
:1057300039F4282F082E000C330B9217130621F48E
:105740009091B40292FF07C08595859585950E943A
:10575000EB280C94872B089580E008956FEF7FEF7E
:1057600090E080E00C94963590E080E00E947235E5
:1057700021E08A3E9E4F09F020E0822F089582E0CA
:1057800090E00C946A3583E090E00C946A35CF93F6
:1057900084E090E00E946A35C82F82E290E00E9487
:1057A0006A35982F8C2FCF910895CF93C92F682FEA
:1057B00084E090E00E9478356C2F82E290E0CF91F7
:1057C0000C947835AB01BC018FE090E00C948A35E5
:1057D000AB01BC0183E190E00C948A3560E070E09D
:1057E000CB010C94E82B60E070E0CB010E94E22B2F
:1057F0000C94EE2B6AEE7EEF90E080E00E949635EE
:1058000060E082E090E00E94783560E083E090E024
:105810000E94783510929102109292021092930297
:105820001092940260E084E090E00E94783560E09D
:1058300082E290E00E94783560E085E090E00E948E
:10584000783560E086E090E00E9478356FEF87E081
:1058500090E00E94783540E050E0BA0188E090E0A6
:105860000E948A3560E08DE090E00E94783540E04B
:1058700050E0BA0188E190E00E948A3560E087E15B
:1058800090E00E94783540E050E0BA018CE190E071
:105890000E948A3570E060E080E290E00E949635D8
:1058A00040E050E0BA0188E190E00E948A350C9413
:1058B000F32B0C94FA2B682F8EE090E00C94783543
:1058C0009C012E5F3F4FAC01485F5F4F80E0241783
:1058D000350709F40895F90191919F019923B9F3CE
:1058E0008F5FF5CF662349F0FC013296089621912F
:1058F000261729F0E817F907D1F780E0089581E02D
:1059000008959C01FC0132969FEF80E0419146177B
:1059100051F09F3F19F4411101C0982F8F5F8630DD
:10592000A9F79F3F09F40895290F311D97FD3A9576
:10593000F90162830895FC0132960896219126139D
:1059400003C0DF0111971C92E817F907B9F7089512
:105950000C94812C0C949B2C029626E0FC01119255
:105960002A95E9F70895089508950C94B42C809130
:10597000CD03843049F10E94B52C80E00E94C2061C
:105980001092A80288E190E020E40FB6F894A89560
:10599000809360000FBE2093600083B7817F846096
:1059A00083BF83B7816083BF7894889583B78E7FE8
:1059B00083BF0FB6F894A8958091600088618093AA
:1059C0006000109260000FBE08950895CF930E946A
:1059D000B32C0E947E090E94E52CC0E08C2F0E940F
:1059E0000709892B31F4CF5FC530C1F780E0CF9133
:1059F000089581E0FCCF08950C94FB2C0E94F120C7
:105A00000E94F01D0E94C2060C94FC2C1F921FB62F
:105A10001F9211248F939F93AF93BF938091A802FD
:105A2000811113C08091C5039091C603A091C70353
:105A3000B091C8034196A11DB11D8093C5039093F9
:105A4000C603A093C703B093C803BF91AF919F91C2
:105A50008F911F901FBE1F90189582E084BD93E028
:105A600095BD9AEF97BD80936E0008952FB7F89477
:105A70008091C5039091C603A091C703B091C8035C
:105A80002FBF08952FB7F8946091C5037091C60396
:105A90008091C7039091C8032FBF08959C014FB711
:105AA000F8948091C5039091C603A091C703B0916B
:105AB000C8034FBF821B930B089578941F921FB6A3
:105AC0001F9211248F939F93AF93BF938091C5032F
:105AD0009091C603A091C703B091C8030196A11D80
